{
  "address": "0x5FbDB2315678afecb367f032d93F642f64180aa3",
  "abi": [
    {
      "inputs": [
        {
          "internalType": "address[]",
          "name": "founders",
          "type": "address[]"
        },
        {
          "internalType": "address",
          "name": "democracyV1",
          "type": "address"
        }
      ],
      "stateMutability": "nonpayable",
      "type": "constructor"
    },
    {
      "anonymous": false,
      "inputs": [
        {
          "indexed": true,
          "internalType": "address",
          "name": "owner",
          "type": "address"
        },
        {
          "indexed": true,
          "internalType": "address",
          "name": "approved",
          "type": "address"
        },
        {
          "indexed": true,
          "internalType": "uint256",
          "name": "tokenId",
          "type": "uint256"
        }
      ],
      "name": "Approval",
      "type": "event"
    },
    {
      "anonymous": false,
      "inputs": [
        {
          "indexed": true,
          "internalType": "address",
          "name": "owner",
          "type": "address"
        },
        {
          "indexed": true,
          "internalType": "address",
          "name": "operator",
          "type": "address"
        },
        {
          "indexed": false,
          "internalType": "bool",
          "name": "approved",
          "type": "bool"
        }
      ],
      "name": "ApprovalForAll",
      "type": "event"
    },
    {
      "anonymous": false,
      "inputs": [
        {
          "indexed": true,
          "internalType": "address",
          "name": "citizen",
          "type": "address"
        },
        {
          "indexed": false,
          "internalType": "uint256",
          "name": "id",
          "type": "uint256"
        }
      ],
      "name": "Issued",
      "type": "event"
    },
    {
      "anonymous": false,
      "inputs": [
        {
          "indexed": true,
          "internalType": "address",
          "name": "citizen",
          "type": "address"
        },
        {
          "indexed": false,
          "internalType": "uint256",
          "name": "id",
          "type": "uint256"
        }
      ],
      "name": "Revoked",
      "type": "event"
    },
    {
      "anonymous": false,
      "inputs": [
        {
          "indexed": true,
          "internalType": "bytes32",
          "name": "role",
          "type": "bytes32"
        },
        {
          "indexed": true,
          "internalType": "bytes32",
          "name": "previousAdminRole",
          "type": "bytes32"
        },
        {
          "indexed": true,
          "internalType": "bytes32",
          "name": "newAdminRole",
          "type": "bytes32"
        }
      ],
      "name": "RoleAdminChanged",
      "type": "event"
    },
    {
      "anonymous": false,
      "inputs": [
        {
          "indexed": true,
          "internalType": "bytes32",
          "name": "role",
          "type": "bytes32"
        },
        {
          "indexed": true,
          "internalType": "address",
          "name": "account",
          "type": "address"
        },
        {
          "indexed": true,
          "internalType": "address",
          "name": "sender",
          "type": "address"
        }
      ],
      "name": "RoleGranted",
      "type": "event"
    },
    {
      "anonymous": false,
      "inputs": [
        {
          "indexed": true,
          "internalType": "bytes32",
          "name": "role",
          "type": "bytes32"
        },
        {
          "indexed": true,
          "internalType": "address",
          "name": "account",
          "type": "address"
        },
        {
          "indexed": true,
          "internalType": "address",
          "name": "sender",
          "type": "address"
        }
      ],
      "name": "RoleRevoked",
      "type": "event"
    },
    {
      "anonymous": false,
      "inputs": [
        {
          "indexed": true,
          "internalType": "address",
          "name": "from",
          "type": "address"
        },
        {
          "indexed": true,
          "internalType": "address",
          "name": "to",
          "type": "address"
        },
        {
          "indexed": true,
          "internalType": "uint256",
          "name": "tokenId",
          "type": "uint256"
        }
      ],
      "name": "Transfer",
      "type": "event"
    },
    {
      "inputs": [],
      "name": "DEFAULT_ADMIN_ROLE",
      "outputs": [
        {
          "internalType": "bytes32",
          "name": "",
          "type": "bytes32"
        }
      ],
      "stateMutability": "view",
      "type": "function"
    },
    {
      "inputs": [],
      "name": "MY_ROLE",
      "outputs": [
        {
          "internalType": "bytes32",
          "name": "",
          "type": "bytes32"
        }
      ],
      "stateMutability": "view",
      "type": "function"
    },
    {
      "inputs": [
        {
          "internalType": "address",
          "name": "to",
          "type": "address"
        },
        {
          "internalType": "uint256",
          "name": "tokenId",
          "type": "uint256"
        }
      ],
      "name": "approve",
      "outputs": [],
      "stateMutability": "nonpayable",
      "type": "function"
    },
    {
      "inputs": [
        {
          "internalType": "address",
          "name": "owner",
          "type": "address"
        }
      ],
      "name": "balanceOf",
      "outputs": [
        {
          "internalType": "uint256",
          "name": "",
          "type": "uint256"
        }
      ],
      "stateMutability": "view",
      "type": "function"
    },
    {
      "inputs": [
        {
          "internalType": "string",
          "name": "name",
          "type": "string"
        },
        {
          "internalType": "string",
          "name": "symbol",
          "type": "string"
        },
        {
          "internalType": "string",
          "name": "description",
          "type": "string"
        }
      ],
      "name": "createGuild",
      "outputs": [],
      "stateMutability": "nonpayable",
      "type": "function"
    },
    {
      "inputs": [
        {
          "internalType": "uint256",
          "name": "tokenId",
          "type": "uint256"
        }
      ],
      "name": "getApproved",
      "outputs": [
        {
          "internalType": "address",
          "name": "",
          "type": "address"
        }
      ],
      "stateMutability": "view",
      "type": "function"
    },
    {
      "inputs": [
        {
          "internalType": "address",
          "name": "guild",
          "type": "address"
        }
      ],
      "name": "getDAO",
      "outputs": [
        {
          "components": [
            {
              "internalType": "address[]",
              "name": "founders",
              "type": "address[]"
            },
            {
              "internalType": "address[]",
              "name": "guilds",
              "type": "address[]"
            }
          ],
          "internalType": "struct CitizenV1.DAOStorage",
          "name": "daoInfo",
          "type": "tuple"
        }
      ],
      "stateMutability": "payable",
      "type": "function"
    },
    {
      "inputs": [],
      "name": "getDAOStream",
      "outputs": [
        {
          "components": [
            {
              "internalType": "address[]",
              "name": "founders",
              "type": "address[]"
            },
            {
              "internalType": "address[]",
              "name": "guilds",
              "type": "address[]"
            },
            {
              "components": [
                {
                  "internalType": "bytes32",
                  "name": "id",
                  "type": "bytes32"
                },
                {
                  "internalType": "string",
                  "name": "title",
                  "type": "string"
                },
                {
                  "internalType": "string",
                  "name": "body",
                  "type": "string"
                },
                {
                  "internalType": "string",
                  "name": "category",
                  "type": "string"
                },
                {
                  "internalType": "string",
                  "name": "createdAt",
                  "type": "string"
                },
                {
                  "internalType": "string",
                  "name": "parentGuild",
                  "type": "string"
                },
                {
                  "internalType": "bool",
                  "name": "isActive",
                  "type": "bool"
                }
              ],
              "internalType": "struct IGuild.Proposal[]",
              "name": "proposals",
              "type": "tuple[]"
            }
          ],
          "internalType": "struct CitizenV1.DAOView",
          "name": "daoStream",
          "type": "tuple"
        }
      ],
      "stateMutability": "view",
      "type": "function"
    },
    {
      "inputs": [
        {
          "internalType": "address",
          "name": "citizen",
          "type": "address"
        }
      ],
      "name": "getDID",
      "outputs": [
        {
          "internalType": "string",
          "name": "",
          "type": "string"
        }
      ],
      "stateMutability": "nonpayable",
      "type": "function"
    },
    {
      "inputs": [],
      "name": "getFounders",
      "outputs": [
        {
          "internalType": "address[]",
          "name": "",
          "type": "address[]"
        }
      ],
      "stateMutability": "nonpayable",
      "type": "function"
    },
    {
      "inputs": [
        {
          "internalType": "address",
          "name": "guild",
          "type": "address"
        }
      ],
      "name": "getGuildProposals",
      "outputs": [
        {
          "components": [
            {
              "internalType": "bytes32",
              "name": "id",
              "type": "bytes32"
            },
            {
              "internalType": "string",
              "name": "title",
              "type": "string"
            },
            {
              "internalType": "string",
              "name": "body",
              "type": "string"
            },
            {
              "internalType": "string",
              "name": "category",
              "type": "string"
            },
            {
              "internalType": "string",
              "name": "createdAt",
              "type": "string"
            },
            {
              "internalType": "string",
              "name": "parentGuild",
              "type": "string"
            },
            {
              "internalType": "bool",
              "name": "isActive",
              "type": "bool"
            }
          ],
          "internalType": "struct IGuild.Proposal[]",
          "name": "",
          "type": "tuple[]"
        }
      ],
      "stateMutability": "nonpayable",
      "type": "function"
    },
    {
      "inputs": [],
      "name": "getGuilds",
      "outputs": [
        {
          "internalType": "address[]",
          "name": "",
          "type": "address[]"
        }
      ],
      "stateMutability": "nonpayable",
      "type": "function"
    },
    {
      "inputs": [
        {
          "internalType": "bytes32",
          "name": "role",
          "type": "bytes32"
        }
      ],
      "name": "getRoleAdmin",
      "outputs": [
        {
          "internalType": "bytes32",
          "name": "",
          "type": "bytes32"
        }
      ],
      "stateMutability": "view",
      "type": "function"
    },
    {
      "inputs": [
        {
          "internalType": "bytes32",
          "name": "role",
          "type": "bytes32"
        },
        {
          "internalType": "address",
          "name": "account",
          "type": "address"
        }
      ],
      "name": "grantRole",
      "outputs": [],
      "stateMutability": "nonpayable",
      "type": "function"
    },
    {
      "inputs": [
        {
          "internalType": "bytes32",
          "name": "role",
          "type": "bytes32"
        },
        {
          "internalType": "address",
          "name": "account",
          "type": "address"
        }
      ],
      "name": "hasRole",
      "outputs": [
        {
          "internalType": "bool",
          "name": "",
          "type": "bool"
        }
      ],
      "stateMutability": "view",
      "type": "function"
    },
    {
      "inputs": [
        {
          "internalType": "address",
          "name": "owner",
          "type": "address"
        },
        {
          "internalType": "address",
          "name": "operator",
          "type": "address"
        }
      ],
      "name": "isApprovedForAll",
      "outputs": [
        {
          "internalType": "bool",
          "name": "",
          "type": "bool"
        }
      ],
      "stateMutability": "view",
      "type": "function"
    },
    {
      "inputs": [
        {
          "internalType": "address",
          "name": "citizen",
          "type": "address"
        }
      ],
      "name": "isCitizen",
      "outputs": [
        {
          "internalType": "bool",
          "name": "",
          "type": "bool"
        }
      ],
      "stateMutability": "nonpayable",
      "type": "function"
    },
    {
      "inputs": [
        {
          "internalType": "address",
          "name": "to",
          "type": "address"
        },
        {
          "internalType": "string",
          "name": "name",
          "type": "string"
        }
      ],
      "name": "issue",
      "outputs": [],
      "stateMutability": "nonpayable",
      "type": "function"
    },
    {
      "inputs": [],
      "name": "name",
      "outputs": [
        {
          "internalType": "string",
          "name": "",
          "type": "string"
        }
      ],
      "stateMutability": "view",
      "type": "function"
    },
    {
      "inputs": [
        {
          "internalType": "uint256",
          "name": "tokenId",
          "type": "uint256"
        }
      ],
      "name": "ownerOf",
      "outputs": [
        {
          "internalType": "address",
          "name": "",
          "type": "address"
        }
      ],
      "stateMutability": "view",
      "type": "function"
    },
    {
      "inputs": [
        {
          "internalType": "bytes32",
          "name": "role",
          "type": "bytes32"
        },
        {
          "internalType": "address",
          "name": "account",
          "type": "address"
        }
      ],
      "name": "renounceRole",
      "outputs": [],
      "stateMutability": "nonpayable",
      "type": "function"
    },
    {
      "inputs": [
        {
          "internalType": "uint256",
          "name": "citizenId",
          "type": "uint256"
        }
      ],
      "name": "revoke",
      "outputs": [],
      "stateMutability": "nonpayable",
      "type": "function"
    },
    {
      "inputs": [
        {
          "internalType": "bytes32",
          "name": "role",
          "type": "bytes32"
        },
        {
          "internalType": "address",
          "name": "account",
          "type": "address"
        }
      ],
      "name": "revokeRole",
      "outputs": [],
      "stateMutability": "nonpayable",
      "type": "function"
    },
    {
      "inputs": [
        {
          "internalType": "address",
          "name": "from",
          "type": "address"
        },
        {
          "internalType": "address",
          "name": "to",
          "type": "address"
        },
        {
          "internalType": "uint256",
          "name": "tokenId",
          "type": "uint256"
        }
      ],
      "name": "safeTransferFrom",
      "outputs": [],
      "stateMutability": "nonpayable",
      "type": "function"
    },
    {
      "inputs": [
        {
          "internalType": "address",
          "name": "from",
          "type": "address"
        },
        {
          "internalType": "address",
          "name": "to",
          "type": "address"
        },
        {
          "internalType": "uint256",
          "name": "tokenId",
          "type": "uint256"
        },
        {
          "internalType": "bytes",
          "name": "_data",
          "type": "bytes"
        }
      ],
      "name": "safeTransferFrom",
      "outputs": [],
      "stateMutability": "nonpayable",
      "type": "function"
    },
    {
      "inputs": [
        {
          "internalType": "address",
          "name": "operator",
          "type": "address"
        },
        {
          "internalType": "bool",
          "name": "approved",
          "type": "bool"
        }
      ],
      "name": "setApprovalForAll",
      "outputs": [],
      "stateMutability": "nonpayable",
      "type": "function"
    },
    {
      "inputs": [
        {
          "internalType": "string",
          "name": "did",
          "type": "string"
        }
      ],
      "name": "setDID",
      "outputs": [
        {
          "internalType": "string",
          "name": "",
          "type": "string"
        }
      ],
      "stateMutability": "nonpayable",
      "type": "function"
    },
    {
      "inputs": [
        {
          "internalType": "bytes4",
          "name": "interfaceId",
          "type": "bytes4"
        }
      ],
      "name": "supportsInterface",
      "outputs": [
        {
          "internalType": "bool",
          "name": "",
          "type": "bool"
        }
      ],
      "stateMutability": "view",
      "type": "function"
    },
    {
      "inputs": [],
      "name": "symbol",
      "outputs": [
        {
          "internalType": "string",
          "name": "",
          "type": "string"
        }
      ],
      "stateMutability": "view",
      "type": "function"
    },
    {
      "inputs": [
        {
          "internalType": "uint256",
          "name": "tokenId",
          "type": "uint256"
        }
      ],
      "name": "tokenURI",
      "outputs": [
        {
          "internalType": "string",
          "name": "",
          "type": "string"
        }
      ],
      "stateMutability": "view",
      "type": "function"
    },
    {
      "inputs": [],
      "name": "totalCitizens",
      "outputs": [
        {
          "internalType": "uint256",
          "name": "",
          "type": "uint256"
        }
      ],
      "stateMutability": "view",
      "type": "function"
    },
    {
      "inputs": [
        {
          "internalType": "address",
          "name": "from",
          "type": "address"
        },
        {
          "internalType": "address",
          "name": "to",
          "type": "address"
        },
        {
          "internalType": "uint256",
          "name": "tokenId",
          "type": "uint256"
        }
      ],
      "name": "transferFrom",
      "outputs": [],
      "stateMutability": "nonpayable",
      "type": "function"
    }
  ],
  "transactionHash": "0x87a5f487374b5d0c77ac1c8cc22ab421189c98c5c9553112b8d3c56e223a1939",
  "args": [
    [
      "0x0fB374787B0bB7e62bD82A1B020b12fa239aB788"
    ],
    "0x0fB374787B0bB7e62bD82A1B020b12fa239aB788"
  ],
  "numDeployments": 1,
  "solcInputHash": "db267845093a10363b3d83a7d0b481ea",
  "bytecode": "0x60806040523480156200001157600080fd5b5060405162005d2a38038062005d2a8339810160408190526200003491620004b5565b6040518060400160405280600781526020016621b4ba34bd32b760c91b8152506040518060400160405280600381526020016221a4ad60e91b815250816000908162000081919062000629565b50600162000090828262000629565b505060408051808201909152838152606060208083018290528551919350600b91620000c29183919088019062000401565b506020828101518051620000dd926001850192019062000401565b5090505060005b8351811015620001f557600780546000918262000101836200070b565b9190505590506200013585838151811062000120576200012062000727565b602002602001015182620001ff60201b60201c565b6040518060400160405280600481526020016330b737b760e11b815250600a6000838152602001908152602001600020908162000173919062000629565b50620001a56000801b86848151811062000191576200019162000727565b60200260200101516200034c60201b60201c565b620001df7f3c919ce539f5b48cdd3b70d26319a61596a5ff44fb77a82b76e90c9924bbe12f86848151811062000191576200019162000727565b5080620001ec816200070b565b915050620000e4565b5050505062000758565b6001600160a01b0382166200025b5760405162461bcd60e51b815260206004820181905260248201527f4552433732313a206d696e7420746f20746865207a65726f206164647265737360448201526064015b60405180910390fd5b6000818152600260205260409020546001600160a01b031615620002c25760405162461bcd60e51b815260206004820152601c60248201527f4552433732313a20746f6b656e20616c7265616479206d696e74656400000000604482015260640162000252565b6001600160a01b0382166000908152600360205260408120805460019290620002ed9084906200073d565b909155505060008181526002602052604080822080546001600160a01b0319166001600160a01b03861690811790915590518392907fddf252ad1be2c89b69c2b068fc378daa952ba7f163c4a11628f55a4df523b3ef908290a45b5050565b6200034882826200035d565b505050565b60008281526006602090815260408083206001600160a01b038516845290915290205460ff16620003485760008281526006602090815260408083206001600160a01b03851684529091529020805460ff19166001179055620003bd3390565b6001600160a01b0316816001600160a01b0316837f2f8788117e7eff1d82e926ec794901d17c78024a50270940304540a733656f0d60405160405180910390a45050565b82805482825590600052602060002090810192821562000459579160200282015b828111156200045957825182546001600160a01b0319166001600160a01b0390911617825560209092019160019091019062000422565b50620004679291506200046b565b5090565b5b808211156200046757600081556001016200046c565b634e487b7160e01b600052604160045260246000fd5b80516001600160a01b0381168114620004b057600080fd5b919050565b60008060408385031215620004c957600080fd5b82516001600160401b0380821115620004e157600080fd5b818501915085601f830112620004f657600080fd5b81516020828211156200050d576200050d62000482565b8160051b604051601f19603f8301168101818110868211171562000535576200053562000482565b6040529283528183019350848101820192898411156200055457600080fd5b948201945b838610156200057d576200056d8662000498565b8552948201949382019362000559565b96506200058e905087820162000498565b9450505050509250929050565b600181811c90821680620005b057607f821691505b602082108103620005d157634e487b7160e01b600052602260045260246000fd5b50919050565b601f8211156200035857600081815260208120601f850160051c81016020861015620006005750805b601f850160051c820191505b8181101562000621578281556001016200060c565b505050505050565b81516001600160401b0381111562000645576200064562000482565b6200065d816200065684546200059b565b84620005d7565b602080601f8311600181146200069557600084156200067c5750858301515b600019600386901b1c1916600185901b17855562000621565b600085815260208120601f198616915b82811015620006c657888601518255948401946001909101908401620006a5565b5085821015620006e55787850151600019600388901b60f8161c191681555b5050505050600190811b01905550565b634e487b7160e01b600052601160045260246000fd5b600060018201620007205762000720620006f5565b5060010190565b634e487b7160e01b600052603260045260246000fd5b60008219821115620007535762000753620006f5565b500190565b6155c280620007686000396000f3fe6080604052600436106200020b5760003560e01c806370a082311162000117578063bd7b09e411620000a1578063d547741f116200006c578063d547741f146200065c578063e985e9c51462000681578063f3caad0314620006ce578063f64e30b0146200070b57600080fd5b8063bd7b09e414620005c6578063c1ca125514620005de578063c5cc33881462000603578063c87b56dd146200063757600080fd5b8063a217fddf11620000e2578063a217fddf146200054d578063a22cb4651462000564578063b73cdd191462000589578063b88d4fde14620005a157600080fd5b806370a0823114620004c45780638978eb1014620004e957806391d14854146200051057806395d89b41146200053557600080fd5b806323b872dd11620001995780632f2ff15d11620001645780632f2ff15d146200043057806336568abe146200045557806342842e0e146200047a5780636352211e146200049f57600080fd5b806323b872dd146200038c578063248a9ca314620003b1578063273b614914620003e5578063274a827b146200040b57600080fd5b8063095ea7b311620001da578063095ea7b314620002d65780630e211cc214620002fb57806316f5f71b146200032257806320c5429b146200036757600080fd5b806301ffc9a7146200021057806304b444d9146200024a57806306fdde031462000271578063081812fc1462000298575b600080fd5b3480156200021d57600080fd5b50620002356200022f3660046200219e565b62000730565b60405190151581526020015b60405180910390f35b3480156200025757600080fd5b506200026f6200026936600462002226565b62000743565b005b3480156200027e57600080fd5b5062000289620007ed565b604051620002419190620022db565b348015620002a557600080fd5b50620002bd620002b7366004620022f0565b62000887565b6040516001600160a01b03909116815260200162000241565b348015620002e357600080fd5b506200026f620002f53660046200230a565b6200091e565b3480156200030857600080fd5b506200031362000a3e565b60405162000241919062002337565b3480156200032f57600080fd5b50620003587f3c919ce539f5b48cdd3b70d26319a61596a5ff44fb77a82b76e90c9924bbe12f81565b60405190815260200162000241565b3480156200037457600080fd5b506200026f62000386366004620022f0565b62000aa4565b3480156200039957600080fd5b506200026f620003ab36600462002386565b62000ab4565b348015620003be57600080fd5b5062000358620003d0366004620022f0565b60009081526006602052604090206001015490565b620003fc620003f6366004620023c7565b62000afd565b6040516200024191906200242b565b3480156200041857600080fd5b50620002896200042a36600462002471565b62000be4565b3480156200043d57600080fd5b506200026f6200044f366004620024b6565b62000c9c565b3480156200046257600080fd5b506200026f62000474366004620024b6565b62000cc5565b3480156200048757600080fd5b506200026f6200049936600462002386565b62000d47565b348015620004ac57600080fd5b50620002bd620004be366004620022f0565b62000d64565b348015620004d157600080fd5b5062000358620004e3366004620023c7565b62000ddd565b348015620004f657600080fd5b506200050162000e66565b604051620002419190620025d5565b3480156200051d57600080fd5b50620002356200052f366004620024b6565b62000fa8565b3480156200054257600080fd5b506200028962000fd3565b3480156200055a57600080fd5b5062000358600081565b3480156200057157600080fd5b506200026f6200058336600462002642565b62000fe4565b3480156200059657600080fd5b506200031362000ff1565b348015620005ae57600080fd5b506200026f620005c03660046200275f565b62001056565b348015620005d357600080fd5b506200035860075481565b348015620005eb57600080fd5b506200026f620005fd36600462002806565b620010d8565b3480156200061057600080fd5b506200062862000622366004620023c7565b6200116f565b60405162000241919062002897565b3480156200064457600080fd5b506200028962000656366004620022f0565b620011e6565b3480156200066957600080fd5b506200026f6200067b366004620024b6565b620011f3565b3480156200068e57600080fd5b5062000235620006a0366004620028ac565b6001600160a01b03918216600090815260056020908152604080832093909416825291909152205460ff1690565b348015620006db57600080fd5b5062000235620006ed366004620023c7565b6001600160a01b031660009081526008602052604090205460ff1690565b3480156200071857600080fd5b50620002896200072a366004620023c7565b6200121c565b60006200073d82620012d0565b92915050565b6001600160a01b03831660009081526008602052604090205460ff1615620007a55760405162461bcd60e51b815260206004820152601060248201526f22bc34b9ba34b7339021b4ba34bd32b760811b60448201526064015b60405180910390fd5b6007805460009182620007b883620028f1565b909155506000818152600a60205260409020909150620007da8385836200299b565b50620007e78482620012f8565b50505050565b606060008054620007fe906200290d565b80601f01602080910402602001604051908101604052809291908181526020018280546200082c906200290d565b80156200087d5780601f1062000851576101008083540402835291602001916200087d565b820191906000526020600020905b8154815290600101906020018083116200085f57829003601f168201915b5050505050905090565b6000818152600260205260408120546001600160a01b0316620009025760405162461bcd60e51b815260206004820152602c60248201527f4552433732313a20617070726f76656420717565727920666f72206e6f6e657860448201526b34b9ba32b73a103a37b5b2b760a11b60648201526084016200079c565b506000908152600460205260409020546001600160a01b031690565b60006200092b8262000d64565b9050806001600160a01b0316836001600160a01b0316036200099a5760405162461bcd60e51b815260206004820152602160248201527f4552433732313a20617070726f76616c20746f2063757272656e74206f776e656044820152603960f91b60648201526084016200079c565b336001600160a01b0382161480620009b95750620009b98133620006a0565b62000a2d5760405162461bcd60e51b815260206004820152603860248201527f4552433732313a20617070726f76652063616c6c6572206973206e6f74206f7760448201527f6e6572206e6f7220617070726f76656420666f7220616c6c000000000000000060648201526084016200079c565b62000a39838362001440565b505050565b6060600b6001018054806020026020016040519081016040528092919081815260200182805480156200087d57602002820191906000526020600020905b81546001600160a01b0316815260019091019060200180831162000a7c575050505050905090565b62000ab1600754620014b0565b50565b60405162461bcd60e51b815260206004820152601d60248201527f436974697a656e416c7068613a204b65657020796f757220536f756c2000000060448201526064016200079c565b604080518082019091526060808252602082015260408051600b80546060602082028401810185529383018181529293919284929091849184018282801562000b7057602002820191906000526020600020905b81546001600160a01b0316815260019091019060200180831162000b51575b505050505081526020016001820180548060200260200160405190810160405280929190818152602001828054801562000bd457602002820191906000526020600020905b81546001600160a01b0316815260019091019060200180831162000bb5575b5050505050815250509050919050565b33600090815260096020526040902060609062000c038385836200299b565b805462000c10906200290d565b80601f016020809104026020016040519081016040528092919081815260200182805462000c3e906200290d565b801562000c8f5780601f1062000c635761010080835404028352916020019162000c8f565b820191906000526020600020905b81548152906001019060200180831162000c7157829003601f168201915b5050505050905092915050565b60008281526006602052604090206001015462000cb98162001551565b62000a3983836200155d565b6001600160a01b038116331462000d375760405162461bcd60e51b815260206004820152602f60248201527f416363657373436f6e74726f6c3a2063616e206f6e6c792072656e6f756e636560448201526e103937b632b9903337b91039b2b63360891b60648201526084016200079c565b62000d438282620015e7565b5050565b62000a398383836040518060200160405280600081525062001056565b6000818152600260205260408120546001600160a01b0316806200073d5760405162461bcd60e51b815260206004820152602960248201527f4552433732313a206f776e657220717565727920666f72206e6f6e657869737460448201526832b73a103a37b5b2b760b91b60648201526084016200079c565b60006001600160a01b03821662000e4a5760405162461bcd60e51b815260206004820152602a60248201527f4552433732313a2062616c616e636520717565727920666f7220746865207a65604482015269726f206164647265737360b01b60648201526084016200079c565b506001600160a01b031660009081526003602052604090205490565b62000e8b60405180606001604052806060815260200160608152602001606081525090565b606060005b600c5481101562000ed0576000600b600101828154811062000eb65762000eb662002a68565b50600052508062000ec781620028f1565b91505062000e90565b5060408051600b805460806020820284018101909452606083018181529293849392919084018282801562000f2f57602002820191906000526020600020905b81546001600160a01b0316815260019091019060200180831162000f10575b50505050508152602001600b60010180548060200260200160405190810160405280929190818152602001828054801562000f9457602002820191906000526020600020905b81546001600160a01b0316815260019091019060200180831162000f75575b505050505081526020018281525091505090565b60009182526006602090815260408084206001600160a01b0393909316845291905290205460ff1690565b606060018054620007fe906200290d565b62000d4333838362001651565b6060600b6000018054806020026020016040519081016040528092919081815260200182805480156200087d576020028201919060005260206000209081546001600160a01b0316815260019091019060200180831162000a7c575050505050905090565b62001062338362001721565b620010ca5760405162461bcd60e51b815260206004820152603160248201527f4552433732313a207472616e736665722063616c6c6572206973206e6f74206f6044820152701ddb995c881b9bdc88185c1c1c9bdd9959607a1b60648201526084016200079c565b620007e78484848462001820565b600083838330604051620010ec9062002179565b620010fb949392919062002a7e565b604051809103906000f08015801562001118573d6000803e3d6000fd5b50600c80546001810182556000919091527fdf6966c971051c3d54ec59162606531493a51404a002842f56009d7e5cf4a8c70180546001600160a01b0319166001600160a01b039290921691909117905550505050565b60606000829050806001600160a01b03166362564c486040518163ffffffff1660e01b8152600401600060405180830381865afa158015620011b5573d6000803e3d6000fd5b505050506040513d6000823e601f3d908101601f19168201604052620011df919081019062002b30565b9392505050565b60606200073d826200185a565b600082815260066020526040902060010154620012108162001551565b62000a398383620015e7565b6001600160a01b038116600090815260096020526040902080546060919062001245906200290d565b80601f016020809104026020016040519081016040528092919081815260200182805462001273906200290d565b8015620012c45780601f106200129857610100808354040283529160200191620012c4565b820191906000526020600020905b815481529060010190602001808311620012a657829003601f168201915b50505050509050919050565b60006001600160e01b03198216637965db0b60e01b14806200073d57506200073d82620019b8565b6001600160a01b038216620013505760405162461bcd60e51b815260206004820181905260248201527f4552433732313a206d696e7420746f20746865207a65726f206164647265737360448201526064016200079c565b6000818152600260205260409020546001600160a01b031615620013b75760405162461bcd60e51b815260206004820152601c60248201527f4552433732313a20746f6b656e20616c7265616479206d696e7465640000000060448201526064016200079c565b6001600160a01b0382166000908152600360205260408120805460019290620013e290849062002d01565b909155505060008181526002602052604080822080546001600160a01b0319166001600160a01b03861690811790915590518392907fddf252ad1be2c89b69c2b068fc378daa952ba7f163c4a11628f55a4df523b3ef908290a45050565b600081815260046020526040902080546001600160a01b0319166001600160a01b0384169081179091558190620014778262000d64565b6001600160a01b03167f8c5be1e5ebec7d5bd14f71427d1e84f3dd0314c0f7b2291e5b200ac8c7c3b92560405160405180910390a45050565b6000620014bd8262000d64565b9050620014cc60008362001440565b6001600160a01b0381166000908152600360205260408120805460019290620014f790849062002d1c565b909155505060008281526002602052604080822080546001600160a01b0319169055518391906001600160a01b038416907fddf252ad1be2c89b69c2b068fc378daa952ba7f163c4a11628f55a4df523b3ef908390a45050565b62000ab1813362001a0b565b62001569828262000fa8565b62000d435760008281526006602090815260408083206001600160a01b03851684529091529020805460ff19166001179055620015a33390565b6001600160a01b0316816001600160a01b0316837f2f8788117e7eff1d82e926ec794901d17c78024a50270940304540a733656f0d60405160405180910390a45050565b620015f3828262000fa8565b1562000d435760008281526006602090815260408083206001600160a01b0385168085529252808320805460ff1916905551339285917ff6391f5c32d9c69d2a47ea670b442974b53935d1edc7fd64eb21e047a839171b9190a45050565b816001600160a01b0316836001600160a01b031603620016b45760405162461bcd60e51b815260206004820152601960248201527f4552433732313a20617070726f766520746f2063616c6c65720000000000000060448201526064016200079c565b6001600160a01b03838116600081815260056020908152604080832094871680845294825291829020805460ff191686151590811790915591519182527f17307eab39ab6107e8899845ad3d59bd9653f200f220920489ca2b5937696c31910160405180910390a3505050565b6000818152600260205260408120546001600160a01b03166200179c5760405162461bcd60e51b815260206004820152602c60248201527f4552433732313a206f70657261746f7220717565727920666f72206e6f6e657860448201526b34b9ba32b73a103a37b5b2b760a11b60648201526084016200079c565b6000620017a98362000d64565b9050806001600160a01b0316846001600160a01b03161480620017f157506001600160a01b0380821660009081526005602090815260408083209388168352929052205460ff165b80620018185750836001600160a01b03166200180d8462000887565b6001600160a01b0316145b949350505050565b6200182d84848462001a7a565b6200183b8484848462001c22565b620007e75760405162461bcd60e51b81526004016200079c9062002d36565b60606000620018698362001d30565b6040516020016200187b919062002d88565b60408051601f198184030181528282018252600783526621b4ba34bd32b760c91b602084810191909152825180820184526000808252888152600a90925292812080549295509091620018ce906200290d565b80601f0160208091040260200160405190810160405280929190818152602001828054620018fc906200290d565b80156200194d5780601f1062001921576101008083540402835291602001916200194d565b820191906000526020600020905b8154815290600101906020018083116200192f57829003601f168201915b5050505050905060003090506200198b8483878660405160200162001976949392919062002dbb565b60405160208183030381529060405262001e48565b6040516020016200199d919062002ead565b60405160208183030381529060405295505050505050919050565b60006001600160e01b031982166380ac58cd60e01b1480620019ea57506001600160e01b03198216635b5e139f60e01b145b806200073d57506301ffc9a760e01b6001600160e01b03198316146200073d565b62001a17828262000fa8565b62000d435762001a32816001600160a01b0316601462001fc0565b62001a3f83602062001fc0565b60405160200162001a5292919062002ef4565b60408051601f198184030181529082905262461bcd60e51b82526200079c91600401620022db565b826001600160a01b031662001a8f8262000d64565b6001600160a01b03161462001af55760405162461bcd60e51b815260206004820152602560248201527f4552433732313a207472616e736665722066726f6d20696e636f72726563742060448201526437bbb732b960d91b60648201526084016200079c565b6001600160a01b03821662001b595760405162461bcd60e51b8152602060048201526024808201527f4552433732313a207472616e7366657220746f20746865207a65726f206164646044820152637265737360e01b60648201526084016200079c565b62001b6660008262001440565b6001600160a01b038316600090815260036020526040812080546001929062001b9190849062002d1c565b90915550506001600160a01b038216600090815260036020526040812080546001929062001bc190849062002d01565b909155505060008181526002602052604080822080546001600160a01b0319166001600160a01b0386811691821790925591518493918716917fddf252ad1be2c89b69c2b068fc378daa952ba7f163c4a11628f55a4df523b3ef91a4505050565b60006001600160a01b0384163b1562001d2557604051630a85bd0160e11b81526001600160a01b0385169063150b7a029062001c6990339089908890889060040162002f6d565b6020604051808303816000875af192505050801562001ca7575060408051601f3d908101601f1916820190925262001ca49181019062002fac565b60015b62001d0a573d80801562001cd8576040519150601f19603f3d011682016040523d82523d6000602084013e62001cdd565b606091505b50805160000362001d025760405162461bcd60e51b81526004016200079c9062002d36565b805181602001fd5b6001600160e01b031916630a85bd0160e11b14905062001818565b506001949350505050565b60608160000362001d585750506040805180820190915260018152600360fc1b602082015290565b8160005b811562001d88578062001d6f81620028f1565b915062001d809050600a8362002fe2565b915062001d5c565b6000816001600160401b0381111562001da55762001da56200267e565b6040519080825280601f01601f19166020018201604052801562001dd0576020820181803683370190505b5090505b8415620018185762001de860018362002d1c565b915062001df7600a8662002ff9565b62001e0490603062002d01565b60f81b81838151811062001e1c5762001e1c62002a68565b60200101906001600160f81b031916908160001a90535062001e40600a8662002fe2565b945062001dd4565b6060815160000362001e6857505060408051602081019091526000815290565b60006040518060600160405280604081526020016200554d604091399050600060038451600262001e9a919062002d01565b62001ea6919062002fe2565b62001eb390600462003010565b9050600062001ec482602062002d01565b6001600160401b0381111562001ede5762001ede6200267e565b6040519080825280601f01601f19166020018201604052801562001f09576020820181803683370190505b509050818152600183018586518101602084015b8183101562001f77576003830192508251603f8160121c168501518253600182019150603f81600c1c168501518253600182019150603f8160061c168501518253600182019150603f811685015182535060010162001f1d565b60038951066001811462001f94576002811462001fa65762001fb2565b613d3d60f01b60011983015262001fb2565b603d60f81b6000198301525b509398975050505050505050565b6060600062001fd183600262003010565b62001fde90600262002d01565b6001600160401b0381111562001ff85762001ff86200267e565b6040519080825280601f01601f19166020018201604052801562002023576020820181803683370190505b509050600360fc1b8160008151811062002041576200204162002a68565b60200101906001600160f81b031916908160001a905350600f60fb1b8160018151811062002073576200207362002a68565b60200101906001600160f81b031916908160001a90535060006200209984600262003010565b620020a690600162002d01565b90505b600181111562002128576f181899199a1a9b1b9c1cb0b131b232b360811b85600f1660108110620020de57620020de62002a68565b1a60f81b828281518110620020f757620020f762002a68565b60200101906001600160f81b031916908160001a90535060049490941c93620021208162003032565b9050620020a9565b508315620011df5760405162461bcd60e51b815260206004820181905260248201527f537472696e67733a20686578206c656e67746820696e73756666696369656e7460448201526064016200079c565b612500806200304d83390190565b6001600160e01b03198116811462000ab157600080fd5b600060208284031215620021b157600080fd5b8135620011df8162002187565b80356001600160a01b0381168114620021d657600080fd5b919050565b60008083601f840112620021ee57600080fd5b5081356001600160401b038111156200220657600080fd5b6020830191508360208285010111156200221f57600080fd5b9250929050565b6000806000604084860312156200223c57600080fd5b6200224784620021be565b925060208401356001600160401b038111156200226357600080fd5b6200227186828701620021db565b9497909650939450505050565b60005b838110156200229b57818101518382015260200162002281565b83811115620007e75750506000910152565b60008151808452620022c78160208601602086016200227e565b601f01601f19169290920160200192915050565b602081526000620011df6020830184620022ad565b6000602082840312156200230357600080fd5b5035919050565b600080604083850312156200231e57600080fd5b6200232983620021be565b946020939093013593505050565b6020808252825182820181905260009190848201906040850190845b818110156200237a5783516001600160a01b03168352928401929184019160010162002353565b50909695505050505050565b6000806000606084860312156200239c57600080fd5b620023a784620021be565b9250620023b760208501620021be565b9150604084013590509250925092565b600060208284031215620023da57600080fd5b620011df82620021be565b600081518084526020808501945080840160005b83811015620024205781516001600160a01b031687529582019590820190600101620023f9565b509495945050505050565b602081526000825160406020840152620024496060840182620023e5565b90506020840151601f19848303016040850152620024688282620023e5565b95945050505050565b600080602083850312156200248557600080fd5b82356001600160401b038111156200249c57600080fd5b620024aa85828601620021db565b90969095509350505050565b60008060408385031215620024ca57600080fd5b82359150620024dc60208401620021be565b90509250929050565b600081518084526020808501808196508360051b8101915082860160005b85811015620025c8578284038952815160e0815186528682015181888801526200253082880182620022ad565b915050604080830151878303828901526200254c8382620022ad565b9250505060608083015187830382890152620025698382620022ad565b9250505060808083015187830382890152620025868382620022ad565b9250505060a08083015187830382890152620025a38382620022ad565b60c0948501511515989094019790975250509885019893509084019060010162002503565b5091979650505050505050565b602081526000825160606020840152620025f36080840182620023e5565b90506020840151601f1980858403016040860152620026138383620023e5565b9250604086015191508085840301606086015250620024688282620024e5565b801515811462000ab157600080fd5b600080604083850312156200265657600080fd5b6200266183620021be565b91506020830135620026738162002633565b809150509250929050565b634e487b7160e01b600052604160045260246000fd5b60405160e081016001600160401b0381118282101715620026b957620026b96200267e565b60405290565b604051601f8201601f191681016001600160401b0381118282101715620026ea57620026ea6200267e565b604052919050565b60006001600160401b038211156200270e576200270e6200267e565b50601f01601f191660200190565b6000620027336200272d84620026f2565b620026bf565b90508281528383830111156200274857600080fd5b828260208301376000602084830101529392505050565b600080600080608085870312156200277657600080fd5b6200278185620021be565b93506200279160208601620021be565b92506040850135915060608501356001600160401b03811115620027b457600080fd5b8501601f81018713620027c657600080fd5b620027d7878235602084016200271c565b91505092959194509250565b600082601f830112620027f557600080fd5b620011df838335602085016200271c565b6000806000606084860312156200281c57600080fd5b83356001600160401b03808211156200283457600080fd5b6200284287838801620027e3565b945060208601359150808211156200285957600080fd5b6200286787838801620027e3565b935060408601359150808211156200287e57600080fd5b506200288d86828701620027e3565b9150509250925092565b602081526000620011df6020830184620024e5565b60008060408385031215620028c057600080fd5b620028cb83620021be565b9150620024dc60208401620021be565b634e487b7160e01b600052601160045260246000fd5b600060018201620029065762002906620028db565b5060010190565b600181811c908216806200292257607f821691505b6020821081036200294357634e487b7160e01b600052602260045260246000fd5b50919050565b601f82111562000a3957600081815260208120601f850160051c81016020861015620029725750805b601f850160051c820191505b8181101562002993578281556001016200297e565b505050505050565b6001600160401b03831115620029b557620029b56200267e565b620029cd83620029c683546200290d565b8362002949565b6000601f84116001811462002a045760008515620029eb5750838201355b600019600387901b1c1916600186901b17835562002a61565b600083815260209020601f19861690835b8281101562002a37578685013582556020948501946001909201910162002a15565b508682101562002a555760001960f88860031b161c19848701351681555b505060018560011b0183555b5050505050565b634e487b7160e01b600052603260045260246000fd5b60808152600062002a936080830187620022ad565b828103602084015262002aa78187620022ad565b9050828103604084015262002abd8186620022ad565b91505060018060a01b038316606083015295945050505050565b600082601f83011262002ae957600080fd5b815162002afa6200272d82620026f2565b81815284602083860101111562002b1057600080fd5b620018188260208301602087016200227e565b8051620021d68162002633565b6000602080838503121562002b4457600080fd5b82516001600160401b038082111562002b5c57600080fd5b818501915085601f83011262002b7157600080fd5b81518181111562002b865762002b866200267e565b8060051b62002b97858201620026bf565b918252838101850191858101908984111562002bb257600080fd5b86860192505b8383101562002cf45782518581111562002bd157600080fd5b860160e0818c03601f1901121562002be95760008081fd5b62002bf362002694565b8882015181526040808301518881111562002c0e5760008081fd5b62002c1e8e8c8387010162002ad7565b8b840152506060808401518981111562002c385760008081fd5b62002c488f8d8388010162002ad7565b838501525060809150818401518981111562002c645760008081fd5b62002c748f8d8388010162002ad7565b82850152505060a0808401518981111562002c8f5760008081fd5b62002c9f8f8d8388010162002ad7565b838501525060c09150818401518981111562002cbb5760008081fd5b62002ccb8f8d8388010162002ad7565b82850152505062002cdf60e0840162002b23565b90820152835250918601919086019062002bb8565b9998505050505050505050565b6000821982111562002d175762002d17620028db565b500190565b60008282101562002d315762002d31620028db565b500390565b60208082526032908201527f4552433732313a207472616e7366657220746f206e6f6e20455243373231526560408201527131b2b4bb32b91034b6b83632b6b2b73a32b960711b606082015260800190565b68436974697a656e202360b81b81526000825162002dae8160098501602087016200227e565b9190910160090192915050565b683d913730b6b2911d1160b91b8152845160009062002de2816009850160208a016200227e565b601d60f91b600991840191820152855162002e0581600a840160208a016200227e565b71111610113232b9b1b934b83a34b7b7111d1160711b600a9290910191820152845162002e3a81601c8401602089016200227e565b6c1116101134b6b0b3b2911d101160991b601c92909101918201527f646174613a696d6167652f7376672b786d6c3b6261736536342c0000000000006029820152835162002e908160438401602088016200227e565b61227d60f01b604392909101918201526045019695505050505050565b7f646174613a6170706c69636174696f6e2f6a736f6e3b6261736536342c00000081526000825162002ee781601d8501602087016200227e565b91909101601d0192915050565b7f416363657373436f6e74726f6c3a206163636f756e742000000000000000000081526000835162002f2e8160178501602088016200227e565b7001034b99036b4b9b9b4b733903937b6329607d1b601791840191820152835162002f618160288401602088016200227e565b01602801949350505050565b6001600160a01b038581168252841660208201526040810183905260806060820181905260009062002fa290830184620022ad565b9695505050505050565b60006020828403121562002fbf57600080fd5b8151620011df8162002187565b634e487b7160e01b600052601260045260246000fd5b60008262002ff45762002ff462002fcc565b500490565b6000826200300b576200300b62002fcc565b500690565b60008160001904831182151516156200302d576200302d620028db565b500290565b600081620030445762003044620028db565b50600019019056fe60806040523480156200001157600080fd5b506040516200250038038062002500833981016040819052620000349162000145565b8383828282600062000047838262000287565b50600162000056828262000287565b50505050505081600a90816200006d919062000287565b505050505062000353565b634e487b7160e01b600052604160045260246000fd5b600082601f830112620000a057600080fd5b81516001600160401b0380821115620000bd57620000bd62000078565b604051601f8301601f19908116603f01168101908282118183101715620000e857620000e862000078565b816040528381526020925086838588010111156200010557600080fd5b600091505b838210156200012957858201830151818301840152908201906200010a565b838211156200013b5760008385830101525b9695505050505050565b600080600080608085870312156200015c57600080fd5b84516001600160401b03808211156200017457600080fd5b62000182888389016200008e565b955060208701519150808211156200019957600080fd5b620001a7888389016200008e565b94506040870151915080821115620001be57600080fd5b50620001cd878288016200008e565b606087015190935090506001600160a01b0381168114620001ed57600080fd5b939692955090935050565b600181811c908216806200020d57607f821691505b6020821081036200022e57634e487b7160e01b600052602260045260246000fd5b50919050565b601f8211156200028257600081815260208120601f850160051c810160208610156200025d5750805b601f850160051c820191505b818110156200027e5782815560010162000269565b5050505b505050565b81516001600160401b03811115620002a357620002a362000078565b620002bb81620002b48454620001f8565b8462000234565b602080601f831160018114620002f35760008415620002da5750858301515b600019600386901b1c1916600185901b1785556200027e565b600085815260208120601f198616915b82811015620003245788860151825594840194600190910190840162000303565b5085821015620003435787850151600019600388901b60f8161c191681555b5050505050600190811b01905550565b61219d80620003636000396000f3fe608060405234801561001057600080fd5b50600436106101425760003560e01c806371e928af116100b8578063bd7b09e41161007c578063bd7b09e4146102ba578063c7f758a8146102c3578063c87b56dd146102e3578063e985e9c5146102f6578063f3caad0314610332578063f64e30b01461035e57600080fd5b806371e928af1461025957806395d89b411461026c578063a22cb46514610274578063a574cea414610287578063b88d4fde146102a757600080fd5b806323b872dd1161010a57806323b872dd146101d7578063274a827b146101ea57806342842e0e146101fd57806362564c48146102105780636352211e1461022557806370a082311461023857600080fd5b806301ffc9a71461014757806306fdde031461016f578063081812fc14610184578063095ea7b3146101af57806320c5429b146101c4575b600080fd5b61015a610155366004611a0b565b610371565b60405190151581526020015b60405180910390f35b6101776103c3565b6040516101669190611a80565b610197610192366004611a93565b610455565b6040516001600160a01b039091168152602001610166565b6101c26101bd366004611ac8565b6104ef565b005b6101c26101d2366004611a93565b610604565b6101c26101e5366004611af2565b610612565b6101776101f8366004611b2e565b61065a565b6101c261020b366004611af2565b610708565b610218610723565b6040516101669190611c3f565b610197610233366004611a93565b610a78565b61024b610246366004611ca1565b610aef565b604051908152602001610166565b6101c2610267366004611ca1565b610b76565b610177610b96565b6101c2610282366004611cbc565b610ba5565b61029a610295366004611a93565b610bb4565b6040516101669190611cf8565b6101c26102b5366004611d6f565b610c92565b61024b60065481565b6102d66102d1366004611a93565b610d14565b6040516101669190611e4b565b6101776102f1366004611a93565b611080565b61015a610304366004611e5e565b6001600160a01b03918216600090815260056020908152604080832093909416825291909152205460ff1690565b61015a610340366004611ca1565b6001600160a01b031660009081526007602052604090205460ff1690565b61017761036c366004611ca1565b611168565b60006001600160e01b031982166380ac58cd60e01b14806103a257506001600160e01b03198216635b5e139f60e01b145b806103bd57506301ffc9a760e01b6001600160e01b03198316145b92915050565b6060600080546103d290611e91565b80601f01602080910402602001604051908101604052809291908181526020018280546103fe90611e91565b801561044b5780601f106104205761010080835404028352916020019161044b565b820191906000526020600020905b81548152906001019060200180831161042e57829003601f168201915b5050505050905090565b6000818152600260205260408120546001600160a01b03166104d35760405162461bcd60e51b815260206004820152602c60248201527f4552433732313a20617070726f76656420717565727920666f72206e6f6e657860448201526b34b9ba32b73a103a37b5b2b760a11b60648201526084015b60405180910390fd5b506000908152600460205260409020546001600160a01b031690565b60006104fa82610a78565b9050806001600160a01b0316836001600160a01b0316036105675760405162461bcd60e51b815260206004820152602160248201527f4552433732313a20617070726f76616c20746f2063757272656e74206f776e656044820152603960f91b60648201526084016104ca565b336001600160a01b038216148061058357506105838133610304565b6105f55760405162461bcd60e51b815260206004820152603860248201527f4552433732313a20617070726f76652063616c6c6572206973206e6f74206f7760448201527f6e6572206e6f7220617070726f76656420666f7220616c6c000000000000000060648201526084016104ca565b6105ff8383611214565b505050565b61060f600654611282565b50565b60405162461bcd60e51b815260206004820152601d60248201527f436974697a656e416c7068613a204b65657020796f757220536f756c2000000060448201526064016104ca565b336000908152600860205260409020606090610677838583611f19565b805461068290611e91565b80601f01602080910402602001604051908101604052809291908181526020018280546106ae90611e91565b80156106fb5780601f106106d0576101008083540402835291602001916106fb565b820191906000526020600020905b8154815290600101906020018083116106de57829003601f168201915b5050505050905092915050565b6105ff83838360405180602001604052806000815250610c92565b60606009805480602002602001604051908101604052809291908181526020016000905b82821015610a6f57838290600052602060002090600702016040518060e00160405290816000820154815260200160018201805461078490611e91565b80601f01602080910402602001604051908101604052809291908181526020018280546107b090611e91565b80156107fd5780601f106107d2576101008083540402835291602001916107fd565b820191906000526020600020905b8154815290600101906020018083116107e057829003601f168201915b5050505050815260200160028201805461081690611e91565b80601f016020809104026020016040519081016040528092919081815260200182805461084290611e91565b801561088f5780601f106108645761010080835404028352916020019161088f565b820191906000526020600020905b81548152906001019060200180831161087257829003601f168201915b505050505081526020016003820180546108a890611e91565b80601f01602080910402602001604051908101604052809291908181526020018280546108d490611e91565b80156109215780601f106108f657610100808354040283529160200191610921565b820191906000526020600020905b81548152906001019060200180831161090457829003601f168201915b5050505050815260200160048201805461093a90611e91565b80601f016020809104026020016040519081016040528092919081815260200182805461096690611e91565b80156109b35780601f10610988576101008083540402835291602001916109b3565b820191906000526020600020905b81548152906001019060200180831161099657829003601f168201915b505050505081526020016005820180546109cc90611e91565b80601f01602080910402602001604051908101604052809291908181526020018280546109f890611e91565b8015610a455780601f10610a1a57610100808354040283529160200191610a45565b820191906000526020600020905b815481529060010190602001808311610a2857829003601f168201915b50505091835250506006919091015460ff1615156020918201529082526001929092019101610747565b50505050905090565b6000818152600260205260408120546001600160a01b0316806103bd5760405162461bcd60e51b815260206004820152602960248201527f4552433732313a206f776e657220717565727920666f72206e6f6e657869737460448201526832b73a103a37b5b2b760b91b60648201526084016104ca565b60006001600160a01b038216610b5a5760405162461bcd60e51b815260206004820152602a60248201527f4552433732313a2062616c616e636520717565727920666f7220746865207a65604482015269726f206164647265737360b01b60648201526084016104ca565b506001600160a01b031660009081526003602052604090205490565b6001600160a01b038116600052600760205260065461060f90829061131d565b6060600180546103d290611e91565b610bb033838361145f565b5050565b610bd860405180606001604052806060815260200160608152602001606081525090565b6040518060600160405280610beb6103c3565b8152602001610bf8610b96565b8152602001600a8054610c0a90611e91565b80601f0160208091040260200160405190810160405280929190818152602001828054610c3690611e91565b8015610c835780601f10610c5857610100808354040283529160200191610c83565b820191906000526020600020905b815481529060010190602001808311610c6657829003601f168201915b50505050508152509050919050565b610c9c338361152d565b610d025760405162461bcd60e51b815260206004820152603160248201527f4552433732313a207472616e736665722063616c6c6572206973206e6f74206f6044820152701ddb995c881b9bdc88185c1c1c9bdd9959607a1b60648201526084016104ca565b610d0e84848484611624565b50505050565b610d596040518060e001604052806000801916815260200160608152602001606081526020016060815260200160608152602001606081526020016000151581525090565b60098281548110610d6c57610d6c611fda565b90600052602060002090600702016040518060e001604052908160008201548152602001600182018054610d9f90611e91565b80601f0160208091040260200160405190810160405280929190818152602001828054610dcb90611e91565b8015610e185780601f10610ded57610100808354040283529160200191610e18565b820191906000526020600020905b815481529060010190602001808311610dfb57829003601f168201915b50505050508152602001600282018054610e3190611e91565b80601f0160208091040260200160405190810160405280929190818152602001828054610e5d90611e91565b8015610eaa5780601f10610e7f57610100808354040283529160200191610eaa565b820191906000526020600020905b815481529060010190602001808311610e8d57829003601f168201915b50505050508152602001600382018054610ec390611e91565b80601f0160208091040260200160405190810160405280929190818152602001828054610eef90611e91565b8015610f3c5780601f10610f1157610100808354040283529160200191610f3c565b820191906000526020600020905b815481529060010190602001808311610f1f57829003601f168201915b50505050508152602001600482018054610f5590611e91565b80601f0160208091040260200160405190810160405280929190818152602001828054610f8190611e91565b8015610fce5780601f10610fa357610100808354040283529160200191610fce565b820191906000526020600020905b815481529060010190602001808311610fb157829003601f168201915b50505050508152602001600582018054610fe790611e91565b80601f016020809104026020016040519081016040528092919081815260200182805461101390611e91565b80156110605780601f1061103557610100808354040283529160200191611060565b820191906000526020600020905b81548152906001019060200180831161104357829003601f168201915b50505091835250506006919091015460ff16151560209091015292915050565b6000818152600260205260409020546060906001600160a01b03166110ff5760405162461bcd60e51b815260206004820152602f60248201527f4552433732314d657461646174613a2055524920717565727920666f72206e6f60448201526e3732bc34b9ba32b73a103a37b5b2b760891b60648201526084016104ca565b600061111660408051602081019091526000815290565b905060008151116111365760405180602001604052806000815250611161565b8061114084611657565b604051602001611151929190611ff0565b6040516020818303038152906040525b9392505050565b6001600160a01b038116600090815260086020526040902080546060919061118f90611e91565b80601f01602080910402602001604051908101604052809291908181526020018280546111bb90611e91565b80156112085780601f106111dd57610100808354040283529160200191611208565b820191906000526020600020905b8154815290600101906020018083116111eb57829003601f168201915b50505050509050919050565b600081815260046020526040902080546001600160a01b0319166001600160a01b038416908117909155819061124982610a78565b6001600160a01b03167f8c5be1e5ebec7d5bd14f71427d1e84f3dd0314c0f7b2291e5b200ac8c7c3b92560405160405180910390a45050565b600061128d82610a78565b905061129a600083611214565b6001600160a01b03811660009081526003602052604081208054600192906112c3908490612035565b909155505060008281526002602052604080822080546001600160a01b0319169055518391906001600160a01b038416907fddf252ad1be2c89b69c2b068fc378daa952ba7f163c4a11628f55a4df523b3ef908390a45050565b6001600160a01b0382166113735760405162461bcd60e51b815260206004820181905260248201527f4552433732313a206d696e7420746f20746865207a65726f206164647265737360448201526064016104ca565b6000818152600260205260409020546001600160a01b0316156113d85760405162461bcd60e51b815260206004820152601c60248201527f4552433732313a20746f6b656e20616c7265616479206d696e7465640000000060448201526064016104ca565b6001600160a01b038216600090815260036020526040812080546001929061140190849061204c565b909155505060008181526002602052604080822080546001600160a01b0319166001600160a01b03861690811790915590518392907fddf252ad1be2c89b69c2b068fc378daa952ba7f163c4a11628f55a4df523b3ef908290a45050565b816001600160a01b0316836001600160a01b0316036114c05760405162461bcd60e51b815260206004820152601960248201527f4552433732313a20617070726f766520746f2063616c6c65720000000000000060448201526064016104ca565b6001600160a01b03838116600081815260056020908152604080832094871680845294825291829020805460ff191686151590811790915591519182527f17307eab39ab6107e8899845ad3d59bd9653f200f220920489ca2b5937696c31910160405180910390a3505050565b6000818152600260205260408120546001600160a01b03166115a65760405162461bcd60e51b815260206004820152602c60248201527f4552433732313a206f70657261746f7220717565727920666f72206e6f6e657860448201526b34b9ba32b73a103a37b5b2b760a11b60648201526084016104ca565b60006115b183610a78565b9050806001600160a01b0316846001600160a01b031614806115f857506001600160a01b0380821660009081526005602090815260408083209388168352929052205460ff165b8061161c5750836001600160a01b031661161184610455565b6001600160a01b0316145b949350505050565b61162f848484611758565b61163b848484846118f4565b610d0e5760405162461bcd60e51b81526004016104ca90612064565b60608160000361167e5750506040805180820190915260018152600360fc1b602082015290565b8160005b81156116a85780611692816120b6565b91506116a19050600a836120e5565b9150611682565b60008167ffffffffffffffff8111156116c3576116c3611d59565b6040519080825280601f01601f1916602001820160405280156116ed576020820181803683370190505b5090505b841561161c57611702600183612035565b915061170f600a866120f9565b61171a90603061204c565b60f81b81838151811061172f5761172f611fda565b60200101906001600160f81b031916908160001a905350611751600a866120e5565b94506116f1565b826001600160a01b031661176b82610a78565b6001600160a01b0316146117cf5760405162461bcd60e51b815260206004820152602560248201527f4552433732313a207472616e736665722066726f6d20696e636f72726563742060448201526437bbb732b960d91b60648201526084016104ca565b6001600160a01b0382166118315760405162461bcd60e51b8152602060048201526024808201527f4552433732313a207472616e7366657220746f20746865207a65726f206164646044820152637265737360e01b60648201526084016104ca565b61183c600082611214565b6001600160a01b0383166000908152600360205260408120805460019290611865908490612035565b90915550506001600160a01b038216600090815260036020526040812080546001929061189390849061204c565b909155505060008181526002602052604080822080546001600160a01b0319166001600160a01b0386811691821790925591518493918716917fddf252ad1be2c89b69c2b068fc378daa952ba7f163c4a11628f55a4df523b3ef91a4505050565b60006001600160a01b0384163b156119ea57604051630a85bd0160e11b81526001600160a01b0385169063150b7a029061193890339089908890889060040161210d565b6020604051808303816000875af1925050508015611973575060408051601f3d908101601f191682019092526119709181019061214a565b60015b6119d0573d8080156119a1576040519150601f19603f3d011682016040523d82523d6000602084013e6119a6565b606091505b5080516000036119c85760405162461bcd60e51b81526004016104ca90612064565b805181602001fd5b6001600160e01b031916630a85bd0160e11b14905061161c565b506001949350505050565b6001600160e01b03198116811461060f57600080fd5b600060208284031215611a1d57600080fd5b8135611161816119f5565b60005b83811015611a43578181015183820152602001611a2b565b83811115610d0e5750506000910152565b60008151808452611a6c816020860160208601611a28565b601f01601f19169290920160200192915050565b6020815260006111616020830184611a54565b600060208284031215611aa557600080fd5b5035919050565b80356001600160a01b0381168114611ac357600080fd5b919050565b60008060408385031215611adb57600080fd5b611ae483611aac565b946020939093013593505050565b600080600060608486031215611b0757600080fd5b611b1084611aac565b9250611b1e60208501611aac565b9150604084013590509250925092565b60008060208385031215611b4157600080fd5b823567ffffffffffffffff80821115611b5957600080fd5b818501915085601f830112611b6d57600080fd5b813581811115611b7c57600080fd5b866020828501011115611b8e57600080fd5b60209290920196919550909350505050565b805182526000602082015160e06020850152611bbf60e0850182611a54565b905060408301518482036040860152611bd88282611a54565b91505060608301518482036060860152611bf28282611a54565b91505060808301518482036080860152611c0c8282611a54565b91505060a083015184820360a0860152611c268282611a54565b91505060c0830151151560c08501528091505092915050565b6000602080830181845280855180835260408601915060408160051b870101925083870160005b82811015611c9457603f19888603018452611c82858351611ba0565b94509285019290850190600101611c66565b5092979650505050505050565b600060208284031215611cb357600080fd5b61116182611aac565b60008060408385031215611ccf57600080fd5b611cd883611aac565b915060208301358015158114611ced57600080fd5b809150509250929050565b602081526000825160606020840152611d146080840182611a54565b90506020840151601f1980858403016040860152611d328383611a54565b9250604086015191508085840301606086015250611d508282611a54565b95945050505050565b634e487b7160e01b600052604160045260246000fd5b60008060008060808587031215611d8557600080fd5b611d8e85611aac565b9350611d9c60208601611aac565b925060408501359150606085013567ffffffffffffffff80821115611dc057600080fd5b818701915087601f830112611dd457600080fd5b813581811115611de657611de6611d59565b604051601f8201601f19908116603f01168101908382118183101715611e0e57611e0e611d59565b816040528281528a6020848701011115611e2757600080fd5b82602086016020830137600060208483010152809550505050505092959194509250565b6020815260006111616020830184611ba0565b60008060408385031215611e7157600080fd5b611e7a83611aac565b9150611e8860208401611aac565b90509250929050565b600181811c90821680611ea557607f821691505b602082108103611ec557634e487b7160e01b600052602260045260246000fd5b50919050565b601f8211156105ff57600081815260208120601f850160051c81016020861015611ef25750805b601f850160051c820191505b81811015611f1157828155600101611efe565b505050505050565b67ffffffffffffffff831115611f3157611f31611d59565b611f4583611f3f8354611e91565b83611ecb565b6000601f841160018114611f795760008515611f615750838201355b600019600387901b1c1916600186901b178355611fd3565b600083815260209020601f19861690835b82811015611faa5786850135825560209485019460019092019101611f8a565b5086821015611fc75760001960f88860031b161c19848701351681555b505060018560011b0183555b5050505050565b634e487b7160e01b600052603260045260246000fd5b60008351612002818460208801611a28565b835190830190612016818360208801611a28565b01949350505050565b634e487b7160e01b600052601160045260246000fd5b6000828210156120475761204761201f565b500390565b6000821982111561205f5761205f61201f565b500190565b60208082526032908201527f4552433732313a207472616e7366657220746f206e6f6e20455243373231526560408201527131b2b4bb32b91034b6b83632b6b2b73a32b960711b606082015260800190565b6000600182016120c8576120c861201f565b5060010190565b634e487b7160e01b600052601260045260246000fd5b6000826120f4576120f46120cf565b500490565b600082612108576121086120cf565b500690565b6001600160a01b038581168252841660208201526040810183905260806060820181905260009061214090830184611a54565b9695505050505050565b60006020828403121561215c57600080fd5b8151611161816119f556fea26469706673582212200369d21e7468c94e4b9194e61b6dfe7e16be9bee23edf3a286707e11d40019d164736f6c634300080f00334142434445464748494a4b4c4d4e4f505152535455565758595a6162636465666768696a6b6c6d6e6f707172737475767778797a303132333435363738392b2fa264697066735822122060da010f367bb88dccc1c484e793b3221a21143bba285d6a951c4f9a0d36bc3364736f6c634300080f0033",
  "devdoc": {
    "kind": "dev",
    "methods": {
      "approve(address,uint256)": {
        "details": "See {IERC721-approve}."
      },
      "balanceOf(address)": {
        "details": "See {IERC721-balanceOf}."
      },
      "getApproved(uint256)": {
        "details": "See {IERC721-getApproved}."
      },
      "getRoleAdmin(bytes32)": {
        "details": "Returns the admin role that controls `role`. See {grantRole} and {revokeRole}. To change a role's admin, use {_setRoleAdmin}."
      },
      "grantRole(bytes32,address)": {
        "details": "Grants `role` to `account`. If `account` had not been already granted `role`, emits a {RoleGranted} event. Requirements: - the caller must have ``role``'s admin role."
      },
      "hasRole(bytes32,address)": {
        "details": "Returns `true` if `account` has been granted `role`."
      },
      "isApprovedForAll(address,address)": {
        "details": "See {IERC721-isApprovedForAll}."
      },
      "name()": {
        "details": "See {IERC721Metadata-name}."
      },
      "ownerOf(uint256)": {
        "details": "See {IERC721-ownerOf}."
      },
      "renounceRole(bytes32,address)": {
        "details": "Revokes `role` from the calling account. Roles are often managed via {grantRole} and {revokeRole}: this function's purpose is to provide a mechanism for accounts to lose their privileges if they are compromised (such as when a trusted device is misplaced). If the calling account had been revoked `role`, emits a {RoleRevoked} event. Requirements: - the caller must be `account`."
      },
      "revokeRole(bytes32,address)": {
        "details": "Revokes `role` from `account`. If `account` had been granted `role`, emits a {RoleRevoked} event. Requirements: - the caller must have ``role``'s admin role."
      },
      "safeTransferFrom(address,address,uint256)": {
        "details": "See {IERC721-safeTransferFrom}."
      },
      "safeTransferFrom(address,address,uint256,bytes)": {
        "details": "See {IERC721-safeTransferFrom}."
      },
      "setApprovalForAll(address,bool)": {
        "details": "See {IERC721-setApprovalForAll}."
      },
      "symbol()": {
        "details": "See {IERC721Metadata-symbol}."
      },
      "tokenURI(uint256)": {
        "details": "The returned value may be a base64 encoded data URI or an API URL."
      },
      "transferFrom(address,address,uint256)": {
        "details": "See {IERC721-transferFrom}."
      }
    },
    "version": 1
  },
  "userdoc": {
    "kind": "user",
    "methods": {
      "tokenURI(uint256)": {
        "notice": "Given a token ID and seed, construct a token URI for an official Nouns DAO noun."
      }
    },
    "version": 1
  },
  "storageLayout": {
    "storage": [
      {
        "astId": 418,
        "contract": "contracts/CitizenV1.sol:CitizenV1",
        "label": "_name",
        "offset": 0,
        "slot": "0",
        "type": "t_string_storage"
      },
      {
        "astId": 420,
        "contract": "contracts/CitizenV1.sol:CitizenV1",
        "label": "_symbol",
        "offset": 0,
        "slot": "1",
        "type": "t_string_storage"
      },
      {
        "astId": 424,
        "contract": "contracts/CitizenV1.sol:CitizenV1",
        "label": "_owners",
        "offset": 0,
        "slot": "2",
        "type": "t_mapping(t_uint256,t_address)"
      },
      {
        "astId": 428,
        "contract": "contracts/CitizenV1.sol:CitizenV1",
        "label": "_balances",
        "offset": 0,
        "slot": "3",
        "type": "t_mapping(t_address,t_uint256)"
      },
      {
        "astId": 432,
        "contract": "contracts/CitizenV1.sol:CitizenV1",
        "label": "_tokenApprovals",
        "offset": 0,
        "slot": "4",
        "type": "t_mapping(t_uint256,t_address)"
      },
      {
        "astId": 438,
        "contract": "contracts/CitizenV1.sol:CitizenV1",
        "label": "_operatorApprovals",
        "offset": 0,
        "slot": "5",
        "type": "t_mapping(t_address,t_mapping(t_address,t_bool))"
      },
      {
        "astId": 24,
        "contract": "contracts/CitizenV1.sol:CitizenV1",
        "label": "_roles",
        "offset": 0,
        "slot": "6",
        "type": "t_mapping(t_bytes32,t_struct(RoleData)19_storage)"
      },
      {
        "astId": 2114,
        "contract": "contracts/CitizenV1.sol:CitizenV1",
        "label": "totalCitizens",
        "offset": 0,
        "slot": "7",
        "type": "t_uint256"
      },
      {
        "astId": 2118,
        "contract": "contracts/CitizenV1.sol:CitizenV1",
        "label": "_isCitizen",
        "offset": 0,
        "slot": "8",
        "type": "t_mapping(t_address,t_bool)"
      },
      {
        "astId": 2122,
        "contract": "contracts/CitizenV1.sol:CitizenV1",
        "label": "_citizenDID",
        "offset": 0,
        "slot": "9",
        "type": "t_mapping(t_address,t_string_storage)"
      },
      {
        "astId": 2126,
        "contract": "contracts/CitizenV1.sol:CitizenV1",
        "label": "_citizenAlias",
        "offset": 0,
        "slot": "10",
        "type": "t_mapping(t_uint256,t_string_storage)"
      },
      {
        "astId": 2164,
        "contract": "contracts/CitizenV1.sol:CitizenV1",
        "label": "dao",
        "offset": 0,
        "slot": "11",
        "type": "t_struct(DAOStorage)2150_storage"
      }
    ],
    "types": {
      "t_address": {
        "encoding": "inplace",
        "label": "address",
        "numberOfBytes": "20"
      },
      "t_array(t_address)dyn_storage": {
        "base": "t_address",
        "encoding": "dynamic_array",
        "label": "address[]",
        "numberOfBytes": "32"
      },
      "t_bool": {
        "encoding": "inplace",
        "label": "bool",
        "numberOfBytes": "1"
      },
      "t_bytes32": {
        "encoding": "inplace",
        "label": "bytes32",
        "numberOfBytes": "32"
      },
      "t_mapping(t_address,t_bool)": {
        "encoding": "mapping",
        "key": "t_address",
        "label": "mapping(address => bool)",
        "numberOfBytes": "32",
        "value": "t_bool"
      },
      "t_mapping(t_address,t_mapping(t_address,t_bool))": {
        "encoding": "mapping",
        "key": "t_address",
        "label": "mapping(address => mapping(address => bool))",
        "numberOfBytes": "32",
        "value": "t_mapping(t_address,t_bool)"
      },
      "t_mapping(t_address,t_string_storage)": {
        "encoding": "mapping",
        "key": "t_address",
        "label": "mapping(address => string)",
        "numberOfBytes": "32",
        "value": "t_string_storage"
      },
      "t_mapping(t_address,t_uint256)": {
        "encoding": "mapping",
        "key": "t_address",
        "label": "mapping(address => uint256)",
        "numberOfBytes": "32",
        "value": "t_uint256"
      },
      "t_mapping(t_bytes32,t_struct(RoleData)19_storage)": {
        "encoding": "mapping",
        "key": "t_bytes32",
        "label": "mapping(bytes32 => struct AccessControl.RoleData)",
        "numberOfBytes": "32",
        "value": "t_struct(RoleData)19_storage"
      },
      "t_mapping(t_uint256,t_address)": {
        "encoding": "mapping",
        "key": "t_uint256",
        "label": "mapping(uint256 => address)",
        "numberOfBytes": "32",
        "value": "t_address"
      },
      "t_mapping(t_uint256,t_string_storage)": {
        "encoding": "mapping",
        "key": "t_uint256",
        "label": "mapping(uint256 => string)",
        "numberOfBytes": "32",
        "value": "t_string_storage"
      },
      "t_string_storage": {
        "encoding": "bytes",
        "label": "string",
        "numberOfBytes": "32"
      },
      "t_struct(DAOStorage)2150_storage": {
        "encoding": "inplace",
        "label": "struct CitizenV1.DAOStorage",
        "members": [
          {
            "astId": 2146,
            "contract": "contracts/CitizenV1.sol:CitizenV1",
            "label": "founders",
            "offset": 0,
            "slot": "0",
            "type": "t_array(t_address)dyn_storage"
          },
          {
            "astId": 2149,
            "contract": "contracts/CitizenV1.sol:CitizenV1",
            "label": "guilds",
            "offset": 0,
            "slot": "1",
            "type": "t_array(t_address)dyn_storage"
          }
        ],
        "numberOfBytes": "64"
      },
      "t_struct(RoleData)19_storage": {
        "encoding": "inplace",
        "label": "struct AccessControl.RoleData",
        "members": [
          {
            "astId": 16,
            "contract": "contracts/CitizenV1.sol:CitizenV1",
            "label": "members",
            "offset": 0,
            "slot": "0",
            "type": "t_mapping(t_address,t_bool)"
          },
          {
            "astId": 18,
            "contract": "contracts/CitizenV1.sol:CitizenV1",
            "label": "adminRole",
            "offset": 0,
            "slot": "1",
            "type": "t_bytes32"
          }
        ],
        "numberOfBytes": "64"
      },
      "t_uint256": {
        "encoding": "inplace",
        "label": "uint256",
        "numberOfBytes": "32"
      }
    }
  }
}