{
  "address": "0x5FbDB2315678afecb367f032d93F642f64180aa3",
  "abi": [
    {
      "inputs": [
        {
          "internalType": "address[]",
          "name": "founders",
          "type": "address[]"
        },
        {
          "internalType": "address",
          "name": "democracyV1",
          "type": "address"
        }
      ],
      "stateMutability": "nonpayable",
      "type": "constructor"
    },
    {
      "anonymous": false,
      "inputs": [
        {
          "indexed": true,
          "internalType": "address",
          "name": "owner",
          "type": "address"
        },
        {
          "indexed": true,
          "internalType": "address",
          "name": "approved",
          "type": "address"
        },
        {
          "indexed": true,
          "internalType": "uint256",
          "name": "tokenId",
          "type": "uint256"
        }
      ],
      "name": "Approval",
      "type": "event"
    },
    {
      "anonymous": false,
      "inputs": [
        {
          "indexed": true,
          "internalType": "address",
          "name": "owner",
          "type": "address"
        },
        {
          "indexed": true,
          "internalType": "address",
          "name": "operator",
          "type": "address"
        },
        {
          "indexed": false,
          "internalType": "bool",
          "name": "approved",
          "type": "bool"
        }
      ],
      "name": "ApprovalForAll",
      "type": "event"
    },
    {
      "anonymous": false,
      "inputs": [
        {
          "indexed": true,
          "internalType": "address",
          "name": "citizen",
          "type": "address"
        },
        {
          "indexed": false,
          "internalType": "uint256",
          "name": "id",
          "type": "uint256"
        }
      ],
      "name": "Issued",
      "type": "event"
    },
    {
      "anonymous": false,
      "inputs": [
        {
          "indexed": true,
          "internalType": "address",
          "name": "citizen",
          "type": "address"
        },
        {
          "indexed": false,
          "internalType": "uint256",
          "name": "id",
          "type": "uint256"
        }
      ],
      "name": "Revoked",
      "type": "event"
    },
    {
      "anonymous": false,
      "inputs": [
        {
          "indexed": true,
          "internalType": "bytes32",
          "name": "role",
          "type": "bytes32"
        },
        {
          "indexed": true,
          "internalType": "bytes32",
          "name": "previousAdminRole",
          "type": "bytes32"
        },
        {
          "indexed": true,
          "internalType": "bytes32",
          "name": "newAdminRole",
          "type": "bytes32"
        }
      ],
      "name": "RoleAdminChanged",
      "type": "event"
    },
    {
      "anonymous": false,
      "inputs": [
        {
          "indexed": true,
          "internalType": "bytes32",
          "name": "role",
          "type": "bytes32"
        },
        {
          "indexed": true,
          "internalType": "address",
          "name": "account",
          "type": "address"
        },
        {
          "indexed": true,
          "internalType": "address",
          "name": "sender",
          "type": "address"
        }
      ],
      "name": "RoleGranted",
      "type": "event"
    },
    {
      "anonymous": false,
      "inputs": [
        {
          "indexed": true,
          "internalType": "bytes32",
          "name": "role",
          "type": "bytes32"
        },
        {
          "indexed": true,
          "internalType": "address",
          "name": "account",
          "type": "address"
        },
        {
          "indexed": true,
          "internalType": "address",
          "name": "sender",
          "type": "address"
        }
      ],
      "name": "RoleRevoked",
      "type": "event"
    },
    {
      "anonymous": false,
      "inputs": [
        {
          "indexed": true,
          "internalType": "address",
          "name": "from",
          "type": "address"
        },
        {
          "indexed": true,
          "internalType": "address",
          "name": "to",
          "type": "address"
        },
        {
          "indexed": true,
          "internalType": "uint256",
          "name": "tokenId",
          "type": "uint256"
        }
      ],
      "name": "Transfer",
      "type": "event"
    },
    {
      "inputs": [],
      "name": "DEFAULT_ADMIN_ROLE",
      "outputs": [
        {
          "internalType": "bytes32",
          "name": "",
          "type": "bytes32"
        }
      ],
      "stateMutability": "view",
      "type": "function"
    },
    {
      "inputs": [],
      "name": "MY_ROLE",
      "outputs": [
        {
          "internalType": "bytes32",
          "name": "",
          "type": "bytes32"
        }
      ],
      "stateMutability": "view",
      "type": "function"
    },
    {
      "inputs": [
        {
          "internalType": "address",
          "name": "to",
          "type": "address"
        },
        {
          "internalType": "uint256",
          "name": "tokenId",
          "type": "uint256"
        }
      ],
      "name": "approve",
      "outputs": [],
      "stateMutability": "nonpayable",
      "type": "function"
    },
    {
      "inputs": [
        {
          "internalType": "address",
          "name": "owner",
          "type": "address"
        }
      ],
      "name": "balanceOf",
      "outputs": [
        {
          "internalType": "uint256",
          "name": "",
          "type": "uint256"
        }
      ],
      "stateMutability": "view",
      "type": "function"
    },
    {
      "inputs": [
        {
          "internalType": "string",
          "name": "name",
          "type": "string"
        },
        {
          "internalType": "string",
          "name": "symbol",
          "type": "string"
        },
        {
          "internalType": "string",
          "name": "description",
          "type": "string"
        }
      ],
      "name": "createGuild",
      "outputs": [],
      "stateMutability": "payable",
      "type": "function"
    },
    {
      "inputs": [
        {
          "internalType": "uint256",
          "name": "tokenId",
          "type": "uint256"
        }
      ],
      "name": "getApproved",
      "outputs": [
        {
          "internalType": "address",
          "name": "",
          "type": "address"
        }
      ],
      "stateMutability": "view",
      "type": "function"
    },
    {
      "inputs": [
        {
          "internalType": "address",
          "name": "guild",
          "type": "address"
        }
      ],
      "name": "getDAO",
      "outputs": [
        {
          "components": [
            {
              "internalType": "address[]",
              "name": "founders",
              "type": "address[]"
            },
            {
              "internalType": "address[]",
              "name": "guilds",
              "type": "address[]"
            }
          ],
          "internalType": "struct CitizenV1.DAOStorage",
          "name": "daoInfo",
          "type": "tuple"
        }
      ],
      "stateMutability": "view",
      "type": "function"
    },
    {
      "inputs": [],
      "name": "getDAOStream",
      "outputs": [
        {
          "components": [
            {
              "internalType": "address[]",
              "name": "founders",
              "type": "address[]"
            },
            {
              "components": [
                {
                  "internalType": "string",
                  "name": "name",
                  "type": "string"
                },
                {
                  "internalType": "string",
                  "name": "symbol",
                  "type": "string"
                },
                {
                  "internalType": "string",
                  "name": "description",
                  "type": "string"
                },
                {
                  "internalType": "uint256",
                  "name": "treasury",
                  "type": "uint256"
                },
                {
                  "internalType": "address[]",
                  "name": "members",
                  "type": "address[]"
                },
                {
                  "components": [
                    {
                      "internalType": "bytes32",
                      "name": "id",
                      "type": "bytes32"
                    },
                    {
                      "internalType": "string",
                      "name": "title",
                      "type": "string"
                    },
                    {
                      "internalType": "string",
                      "name": "body",
                      "type": "string"
                    },
                    {
                      "internalType": "string",
                      "name": "category",
                      "type": "string"
                    },
                    {
                      "internalType": "string",
                      "name": "createdAt",
                      "type": "string"
                    },
                    {
                      "internalType": "string",
                      "name": "parentGuild",
                      "type": "string"
                    },
                    {
                      "internalType": "bool",
                      "name": "isActive",
                      "type": "bool"
                    }
                  ],
                  "internalType": "struct IGuild.Proposal[]",
                  "name": "proposals",
                  "type": "tuple[]"
                }
              ],
              "internalType": "struct Guild.Metadata[]",
              "name": "guilds",
              "type": "tuple[]"
            },
            {
              "components": [
                {
                  "internalType": "bytes32",
                  "name": "id",
                  "type": "bytes32"
                },
                {
                  "internalType": "string",
                  "name": "title",
                  "type": "string"
                },
                {
                  "internalType": "string",
                  "name": "body",
                  "type": "string"
                },
                {
                  "internalType": "string",
                  "name": "category",
                  "type": "string"
                },
                {
                  "internalType": "string",
                  "name": "createdAt",
                  "type": "string"
                },
                {
                  "internalType": "string",
                  "name": "parentGuild",
                  "type": "string"
                },
                {
                  "internalType": "bool",
                  "name": "isActive",
                  "type": "bool"
                }
              ],
              "internalType": "struct IGuild.Proposal[]",
              "name": "proposals",
              "type": "tuple[]"
            }
          ],
          "internalType": "struct CitizenV1.DAOView",
          "name": "daoStream",
          "type": "tuple"
        }
      ],
      "stateMutability": "view",
      "type": "function"
    },
    {
      "inputs": [
        {
          "internalType": "address",
          "name": "citizen",
          "type": "address"
        }
      ],
      "name": "getDID",
      "outputs": [
        {
          "internalType": "string",
          "name": "",
          "type": "string"
        }
      ],
      "stateMutability": "nonpayable",
      "type": "function"
    },
    {
      "inputs": [],
      "name": "getFounders",
      "outputs": [
        {
          "internalType": "address[]",
          "name": "",
          "type": "address[]"
        }
      ],
      "stateMutability": "view",
      "type": "function"
    },
    {
      "inputs": [
        {
          "internalType": "address payable",
          "name": "guild",
          "type": "address"
        }
      ],
      "name": "getGuildProposals",
      "outputs": [
        {
          "components": [
            {
              "internalType": "bytes32",
              "name": "id",
              "type": "bytes32"
            },
            {
              "internalType": "string",
              "name": "title",
              "type": "string"
            },
            {
              "internalType": "string",
              "name": "body",
              "type": "string"
            },
            {
              "internalType": "string",
              "name": "category",
              "type": "string"
            },
            {
              "internalType": "string",
              "name": "createdAt",
              "type": "string"
            },
            {
              "internalType": "string",
              "name": "parentGuild",
              "type": "string"
            },
            {
              "internalType": "bool",
              "name": "isActive",
              "type": "bool"
            }
          ],
          "internalType": "struct IGuild.Proposal[]",
          "name": "",
          "type": "tuple[]"
        }
      ],
      "stateMutability": "nonpayable",
      "type": "function"
    },
    {
      "inputs": [],
      "name": "getGuilds",
      "outputs": [
        {
          "internalType": "address[]",
          "name": "",
          "type": "address[]"
        }
      ],
      "stateMutability": "view",
      "type": "function"
    },
    {
      "inputs": [
        {
          "internalType": "bytes32",
          "name": "role",
          "type": "bytes32"
        }
      ],
      "name": "getRoleAdmin",
      "outputs": [
        {
          "internalType": "bytes32",
          "name": "",
          "type": "bytes32"
        }
      ],
      "stateMutability": "view",
      "type": "function"
    },
    {
      "inputs": [
        {
          "internalType": "bytes32",
          "name": "role",
          "type": "bytes32"
        },
        {
          "internalType": "address",
          "name": "account",
          "type": "address"
        }
      ],
      "name": "grantRole",
      "outputs": [],
      "stateMutability": "nonpayable",
      "type": "function"
    },
    {
      "inputs": [
        {
          "internalType": "bytes32",
          "name": "role",
          "type": "bytes32"
        },
        {
          "internalType": "address",
          "name": "account",
          "type": "address"
        }
      ],
      "name": "hasRole",
      "outputs": [
        {
          "internalType": "bool",
          "name": "",
          "type": "bool"
        }
      ],
      "stateMutability": "view",
      "type": "function"
    },
    {
      "inputs": [
        {
          "internalType": "address",
          "name": "owner",
          "type": "address"
        },
        {
          "internalType": "address",
          "name": "operator",
          "type": "address"
        }
      ],
      "name": "isApprovedForAll",
      "outputs": [
        {
          "internalType": "bool",
          "name": "",
          "type": "bool"
        }
      ],
      "stateMutability": "view",
      "type": "function"
    },
    {
      "inputs": [
        {
          "internalType": "address",
          "name": "citizen",
          "type": "address"
        }
      ],
      "name": "isCitizen",
      "outputs": [
        {
          "internalType": "bool",
          "name": "",
          "type": "bool"
        }
      ],
      "stateMutability": "nonpayable",
      "type": "function"
    },
    {
      "inputs": [
        {
          "internalType": "address",
          "name": "to",
          "type": "address"
        },
        {
          "internalType": "string",
          "name": "name",
          "type": "string"
        }
      ],
      "name": "issue",
      "outputs": [],
      "stateMutability": "nonpayable",
      "type": "function"
    },
    {
      "inputs": [],
      "name": "name",
      "outputs": [
        {
          "internalType": "string",
          "name": "",
          "type": "string"
        }
      ],
      "stateMutability": "view",
      "type": "function"
    },
    {
      "inputs": [
        {
          "internalType": "uint256",
          "name": "tokenId",
          "type": "uint256"
        }
      ],
      "name": "ownerOf",
      "outputs": [
        {
          "internalType": "address",
          "name": "",
          "type": "address"
        }
      ],
      "stateMutability": "view",
      "type": "function"
    },
    {
      "inputs": [
        {
          "internalType": "bytes32",
          "name": "role",
          "type": "bytes32"
        },
        {
          "internalType": "address",
          "name": "account",
          "type": "address"
        }
      ],
      "name": "renounceRole",
      "outputs": [],
      "stateMutability": "nonpayable",
      "type": "function"
    },
    {
      "inputs": [
        {
          "internalType": "uint256",
          "name": "citizenId",
          "type": "uint256"
        }
      ],
      "name": "revoke",
      "outputs": [],
      "stateMutability": "nonpayable",
      "type": "function"
    },
    {
      "inputs": [
        {
          "internalType": "bytes32",
          "name": "role",
          "type": "bytes32"
        },
        {
          "internalType": "address",
          "name": "account",
          "type": "address"
        }
      ],
      "name": "revokeRole",
      "outputs": [],
      "stateMutability": "nonpayable",
      "type": "function"
    },
    {
      "inputs": [
        {
          "internalType": "address",
          "name": "from",
          "type": "address"
        },
        {
          "internalType": "address",
          "name": "to",
          "type": "address"
        },
        {
          "internalType": "uint256",
          "name": "tokenId",
          "type": "uint256"
        }
      ],
      "name": "safeTransferFrom",
      "outputs": [],
      "stateMutability": "nonpayable",
      "type": "function"
    },
    {
      "inputs": [
        {
          "internalType": "address",
          "name": "from",
          "type": "address"
        },
        {
          "internalType": "address",
          "name": "to",
          "type": "address"
        },
        {
          "internalType": "uint256",
          "name": "tokenId",
          "type": "uint256"
        },
        {
          "internalType": "bytes",
          "name": "_data",
          "type": "bytes"
        }
      ],
      "name": "safeTransferFrom",
      "outputs": [],
      "stateMutability": "nonpayable",
      "type": "function"
    },
    {
      "inputs": [
        {
          "internalType": "address",
          "name": "operator",
          "type": "address"
        },
        {
          "internalType": "bool",
          "name": "approved",
          "type": "bool"
        }
      ],
      "name": "setApprovalForAll",
      "outputs": [],
      "stateMutability": "nonpayable",
      "type": "function"
    },
    {
      "inputs": [
        {
          "internalType": "string",
          "name": "did",
          "type": "string"
        }
      ],
      "name": "setDID",
      "outputs": [
        {
          "internalType": "string",
          "name": "",
          "type": "string"
        }
      ],
      "stateMutability": "nonpayable",
      "type": "function"
    },
    {
      "inputs": [
        {
          "internalType": "bytes4",
          "name": "interfaceId",
          "type": "bytes4"
        }
      ],
      "name": "supportsInterface",
      "outputs": [
        {
          "internalType": "bool",
          "name": "",
          "type": "bool"
        }
      ],
      "stateMutability": "view",
      "type": "function"
    },
    {
      "inputs": [],
      "name": "symbol",
      "outputs": [
        {
          "internalType": "string",
          "name": "",
          "type": "string"
        }
      ],
      "stateMutability": "view",
      "type": "function"
    },
    {
      "inputs": [
        {
          "internalType": "uint256",
          "name": "tokenId",
          "type": "uint256"
        }
      ],
      "name": "tokenURI",
      "outputs": [
        {
          "internalType": "string",
          "name": "",
          "type": "string"
        }
      ],
      "stateMutability": "view",
      "type": "function"
    },
    {
      "inputs": [],
      "name": "totalCitizens",
      "outputs": [
        {
          "internalType": "uint256",
          "name": "",
          "type": "uint256"
        }
      ],
      "stateMutability": "view",
      "type": "function"
    },
    {
      "inputs": [
        {
          "internalType": "address",
          "name": "from",
          "type": "address"
        },
        {
          "internalType": "address",
          "name": "to",
          "type": "address"
        },
        {
          "internalType": "uint256",
          "name": "tokenId",
          "type": "uint256"
        }
      ],
      "name": "transferFrom",
      "outputs": [],
      "stateMutability": "nonpayable",
      "type": "function"
    }
  ],
  "transactionHash": "0x2ecd9f6d293244b3a65911747c90006acdb5a3ef8eba458caad911b90a600f5e",
  "args": [
    [
      "0x0fB374787B0bB7e62bD82A1B020b12fa239aB788",
      "0x3417aD1d79D9508912E8d7f3B9167085500b12CE"
    ],
    "0x0fB374787B0bB7e62bD82A1B020b12fa239aB788"
  ],
  "numDeployments": 1,
  "solcInputHash": "0602ae9f6097cacc35d30d4c2f1dca1e",
  "bytecode": "0x60806040523480156200001157600080fd5b5060405162006471380380620064718339810160408190526200003491620004b5565b6040518060400160405280600781526020016621b4ba34bd32b760c91b8152506040518060400160405280600381526020016221a4ad60e91b815250816000908162000081919062000629565b50600162000090828262000629565b505060408051808201909152838152606060208083018290528551919350600b91620000c29183919088019062000401565b506020828101518051620000dd926001850192019062000401565b5090505060005b8351811015620001f557600780546000918262000101836200070b565b9190505590506200013585838151811062000120576200012062000727565b602002602001015182620001ff60201b60201c565b6040518060400160405280600481526020016330b737b760e11b815250600a6000838152602001908152602001600020908162000173919062000629565b50620001a56000801b86848151811062000191576200019162000727565b60200260200101516200034c60201b60201c565b620001df7f3c919ce539f5b48cdd3b70d26319a61596a5ff44fb77a82b76e90c9924bbe12f86848151811062000191576200019162000727565b5080620001ec816200070b565b915050620000e4565b5050505062000758565b6001600160a01b0382166200025b5760405162461bcd60e51b815260206004820181905260248201527f4552433732313a206d696e7420746f20746865207a65726f206164647265737360448201526064015b60405180910390fd5b6000818152600260205260409020546001600160a01b031615620002c25760405162461bcd60e51b815260206004820152601c60248201527f4552433732313a20746f6b656e20616c7265616479206d696e74656400000000604482015260640162000252565b6001600160a01b0382166000908152600360205260408120805460019290620002ed9084906200073d565b909155505060008181526002602052604080822080546001600160a01b0319166001600160a01b03861690811790915590518392907fddf252ad1be2c89b69c2b068fc378daa952ba7f163c4a11628f55a4df523b3ef908290a45b5050565b6200034882826200035d565b505050565b60008281526006602090815260408083206001600160a01b038516845290915290205460ff16620003485760008281526006602090815260408083206001600160a01b03851684529091529020805460ff19166001179055620003bd3390565b6001600160a01b0316816001600160a01b0316837f2f8788117e7eff1d82e926ec794901d17c78024a50270940304540a733656f0d60405160405180910390a45050565b82805482825590600052602060002090810192821562000459579160200282015b828111156200045957825182546001600160a01b0319166001600160a01b0390911617825560209092019160019091019062000422565b50620004679291506200046b565b5090565b5b808211156200046757600081556001016200046c565b634e487b7160e01b600052604160045260246000fd5b80516001600160a01b0381168114620004b057600080fd5b919050565b60008060408385031215620004c957600080fd5b82516001600160401b0380821115620004e157600080fd5b818501915085601f830112620004f657600080fd5b81516020828211156200050d576200050d62000482565b8160051b604051601f19603f8301168101818110868211171562000535576200053562000482565b6040529283528183019350848101820192898411156200055457600080fd5b948201945b838610156200057d576200056d8662000498565b8552948201949382019362000559565b96506200058e905087820162000498565b9450505050509250929050565b600181811c90821680620005b057607f821691505b602082108103620005d157634e487b7160e01b600052602260045260246000fd5b50919050565b601f8211156200035857600081815260208120601f850160051c81016020861015620006005750805b601f850160051c820191505b8181101562000621578281556001016200060c565b505050505050565b81516001600160401b0381111562000645576200064562000482565b6200065d816200065684546200059b565b84620005d7565b602080601f8311600181146200069557600084156200067c5750858301515b600019600386901b1c1916600185901b17855562000621565b600085815260208120601f198616915b82811015620006c657888601518255948401946001909101908401620006a5565b5085821015620006e55787850151600019600388901b60f8161c191681555b5050505050600190811b01905550565b634e487b7160e01b600052601160045260246000fd5b600060018201620007205762000720620006f5565b5060010190565b634e487b7160e01b600052603260045260246000fd5b60008219821115620007535762000753620006f5565b500190565b615d0980620007686000396000f3fe6080604052600436106200020b5760003560e01c806370a082311162000117578063bd7b09e411620000a1578063d547741f116200006c578063d547741f146200065c578063e985e9c51462000681578063f3caad0314620006ce578063f64e30b0146200070b57600080fd5b8063bd7b09e414620005d4578063c1ca125514620005ec578063c5cc33881462000603578063c87b56dd146200063757600080fd5b8063a217fddf11620000e2578063a217fddf146200055b578063a22cb4651462000572578063b73cdd191462000597578063b88d4fde14620005af57600080fd5b806370a0823114620004d25780638978eb1014620004f757806391d14854146200051e57806395d89b41146200054357600080fd5b806323b872dd11620001995780632f2ff15d11620001645780632f2ff15d146200043e57806336568abe146200046357806342842e0e14620004885780636352211e14620004ad57600080fd5b806323b872dd146200038c578063248a9ca314620003b1578063273b614914620003e5578063274a827b146200041957600080fd5b8063095ea7b311620001da578063095ea7b314620002d65780630e211cc214620002fb57806316f5f71b146200032257806320c5429b146200036757600080fd5b806301ffc9a7146200021057806304b444d9146200024a57806306fdde031462000271578063081812fc1462000298575b600080fd5b3480156200021d57600080fd5b50620002356200022f366004620022ff565b62000730565b60405190151581526020015b60405180910390f35b3480156200025757600080fd5b506200026f6200026936600462002380565b62000743565b005b3480156200027e57600080fd5b5062000289620007ed565b60405162000241919062002437565b348015620002a557600080fd5b50620002bd620002b73660046200244c565b62000887565b6040516001600160a01b03909116815260200162000241565b348015620002e357600080fd5b506200026f620002f536600462002466565b6200091e565b3480156200030857600080fd5b506200031362000a3e565b60405162000241919062002495565b3480156200032f57600080fd5b50620003587f3c919ce539f5b48cdd3b70d26319a61596a5ff44fb77a82b76e90c9924bbe12f81565b60405190815260200162000241565b3480156200037457600080fd5b506200026f620003863660046200244c565b62000aa4565b3480156200039957600080fd5b506200026f620003ab366004620024e4565b62000ab4565b348015620003be57600080fd5b5062000358620003d03660046200244c565b60009081526006602052604090206001015490565b348015620003f257600080fd5b506200040a620004043660046200252a565b62000afd565b60405162000241919062002590565b3480156200042657600080fd5b506200028962000438366004620025d6565b62000be4565b3480156200044b57600080fd5b506200026f6200045d3660046200261b565b62000c9c565b3480156200047057600080fd5b506200026f620004823660046200261b565b62000cc5565b3480156200049557600080fd5b506200026f620004a7366004620024e4565b62000d47565b348015620004ba57600080fd5b50620002bd620004cc3660046200244c565b62000d64565b348015620004df57600080fd5b5062000358620004f13660046200252a565b62000ddd565b3480156200050457600080fd5b506200050f62000e66565b6040516200024191906200273e565b3480156200052b57600080fd5b50620002356200053d3660046200261b565b62001086565b3480156200055057600080fd5b5062000289620010b1565b3480156200056857600080fd5b5062000358600081565b3480156200057f57600080fd5b506200026f620005913660046200287a565b620010c2565b348015620005a457600080fd5b5062000313620010cf565b348015620005bc57600080fd5b506200026f620005ce366004620029b3565b62001134565b348015620005e157600080fd5b506200035860075481565b6200026f620005fd36600462002a5e565b620011b6565b3480156200061057600080fd5b5062000628620006223660046200252a565b620012d0565b60405162000241919062002aef565b3480156200064457600080fd5b5062000289620006563660046200244c565b62001347565b3480156200066957600080fd5b506200026f6200067b3660046200261b565b62001354565b3480156200068e57600080fd5b5062000235620006a036600462002b04565b6001600160a01b03918216600090815260056020908152604080832093909416825291909152205460ff1690565b348015620006db57600080fd5b5062000235620006ed3660046200252a565b6001600160a01b031660009081526008602052604090205460ff1690565b3480156200071857600080fd5b50620002896200072a3660046200252a565b6200137d565b60006200073d8262001431565b92915050565b6001600160a01b03831660009081526008602052604090205460ff1615620007a55760405162461bcd60e51b815260206004820152601060248201526f22bc34b9ba34b7339021b4ba34bd32b760811b60448201526064015b60405180910390fd5b6007805460009182620007b88362002b4d565b909155506000818152600a60205260409020909150620007da83858362002bf7565b50620007e7848262001459565b50505050565b606060008054620007fe9062002b69565b80601f01602080910402602001604051908101604052809291908181526020018280546200082c9062002b69565b80156200087d5780601f1062000851576101008083540402835291602001916200087d565b820191906000526020600020905b8154815290600101906020018083116200085f57829003601f168201915b5050505050905090565b6000818152600260205260408120546001600160a01b0316620009025760405162461bcd60e51b815260206004820152602c60248201527f4552433732313a20617070726f76656420717565727920666f72206e6f6e657860448201526b34b9ba32b73a103a37b5b2b760a11b60648201526084016200079c565b506000908152600460205260409020546001600160a01b031690565b60006200092b8262000d64565b9050806001600160a01b0316836001600160a01b0316036200099a5760405162461bcd60e51b815260206004820152602160248201527f4552433732313a20617070726f76616c20746f2063757272656e74206f776e656044820152603960f91b60648201526084016200079c565b336001600160a01b0382161480620009b95750620009b98133620006a0565b62000a2d5760405162461bcd60e51b815260206004820152603860248201527f4552433732313a20617070726f76652063616c6c6572206973206e6f74206f7760448201527f6e6572206e6f7220617070726f76656420666f7220616c6c000000000000000060648201526084016200079c565b62000a398383620015a1565b505050565b6060600b6001018054806020026020016040519081016040528092919081815260200182805480156200087d57602002820191906000526020600020905b81546001600160a01b0316815260019091019060200180831162000a7c575050505050905090565b62000ab160075462001611565b50565b60405162461bcd60e51b815260206004820152601d60248201527f436974697a656e416c7068613a204b65657020796f757220536f756c2000000060448201526064016200079c565b604080518082019091526060808252602082015260408051600b80546060602082028401810185529383018181529293919284929091849184018282801562000b7057602002820191906000526020600020905b81546001600160a01b0316815260019091019060200180831162000b51575b505050505081526020016001820180548060200260200160405190810160405280929190818152602001828054801562000bd457602002820191906000526020600020905b81546001600160a01b0316815260019091019060200180831162000bb5575b5050505050815250509050919050565b33600090815260096020526040902060609062000c0383858362002bf7565b805462000c109062002b69565b80601f016020809104026020016040519081016040528092919081815260200182805462000c3e9062002b69565b801562000c8f5780601f1062000c635761010080835404028352916020019162000c8f565b820191906000526020600020905b81548152906001019060200180831162000c7157829003601f168201915b5050505050905092915050565b60008281526006602052604090206001015462000cb981620016b2565b62000a398383620016be565b6001600160a01b038116331462000d375760405162461bcd60e51b815260206004820152602f60248201527f416363657373436f6e74726f6c3a2063616e206f6e6c792072656e6f756e636560448201526e103937b632b9903337b91039b2b63360891b60648201526084016200079c565b62000d43828262001748565b5050565b62000a398383836040518060200160405280600081525062001134565b6000818152600260205260408120546001600160a01b0316806200073d5760405162461bcd60e51b815260206004820152602960248201527f4552433732313a206f776e657220717565727920666f72206e6f6e657869737460448201526832b73a103a37b5b2b760b91b60648201526084016200079c565b60006001600160a01b03821662000e4a5760405162461bcd60e51b815260206004820152602a60248201527f4552433732313a2062616c616e636520717565727920666f7220746865207a65604482015269726f206164647265737360b01b60648201526084016200079c565b506001600160a01b031660009081526003602052604090205490565b62000e8b60405180606001604052806060815260200160608152602001606081525090565b600c546000906001600160401b0381111562000eab5762000eab620028ad565b60405190808252806020026020018201604052801562000f1857816020015b62000f046040518060c001604052806060815260200160608152602001606081526020016000815260200160608152602001606081525090565b81526020019060019003908162000eca5790505b509050606060005b600c548110156200100c576000600b600101828154811062000f465762000f4662002cc3565b9060005260206000200160009054906101000a90046001600160a01b031690506000816001600160a01b0316637a5b4f596040518163ffffffff1660e01b8152600401600060405180830381865afa15801562000fa7573d6000803e3d6000fd5b505050506040513d6000823e601f3d908101601f1916820160405262000fd1919081019062002f65565b90508085848151811062000fe95762000fe962002cc3565b602002602001018190525050508080620010039062002b4d565b91505062000f20565b5060408051600b80546080602082028401810190945260608301818152929384939291908401828280156200106b57602002820191906000526020600020905b81546001600160a01b031681526001909101906020018083116200104c575b50505050508152602001838152602001828152509250505090565b60009182526006602090815260408084206001600160a01b0393909316845291905290205460ff1690565b606060018054620007fe9062002b69565b62000d43338383620017b2565b6060600b6000018054806020026020016040519081016040528092919081815260200182805480156200087d576020028201919060005260206000209081546001600160a01b0316815260019091019060200180831162000a7c575050505050905090565b62001140338362001882565b620011a85760405162461bcd60e51b815260206004820152603160248201527f4552433732313a207472616e736665722063616c6c6572206973206e6f74206f6044820152701ddb995c881b9bdc88185c1c1c9bdd9959607a1b60648201526084016200079c565b620007e78484848462001981565b600083838330604051620011ca90620022da565b620011d994939291906200307f565b604051809103906000f080158015620011f6573d6000803e3d6000fd5b50600c805460018101825560009182527fdf6966c971051c3d54ec59162606531493a51404a002842f56009d7e5cf4a8c70180546001600160a01b0319166001600160a01b038416908117909155604051929350909134908381818185875af1925050503d806000811462001288576040519150601f19603f3d011682016040523d82523d6000602084013e6200128d565b606091505b5050905080620012c95760405162461bcd60e51b81526004016200079c9060208082526004908201526311985a5b60e21b604082015260600190565b5050505050565b60606000829050806001600160a01b03166362564c486040518163ffffffff1660e01b8152600401600060405180830381865afa15801562001316573d6000803e3d6000fd5b505050506040513d6000823e601f3d908101601f19168201604052620013409190810190620030d8565b9392505050565b60606200073d82620019bb565b6000828152600660205260409020600101546200137181620016b2565b62000a39838362001748565b6001600160a01b0381166000908152600960205260409020805460609190620013a69062002b69565b80601f0160208091040260200160405190810160405280929190818152602001828054620013d49062002b69565b8015620014255780601f10620013f95761010080835404028352916020019162001425565b820191906000526020600020905b8154815290600101906020018083116200140757829003601f168201915b50505050509050919050565b60006001600160e01b03198216637965db0b60e01b14806200073d57506200073d8262001b19565b6001600160a01b038216620014b15760405162461bcd60e51b815260206004820181905260248201527f4552433732313a206d696e7420746f20746865207a65726f206164647265737360448201526064016200079c565b6000818152600260205260409020546001600160a01b031615620015185760405162461bcd60e51b815260206004820152601c60248201527f4552433732313a20746f6b656e20616c7265616479206d696e7465640000000060448201526064016200079c565b6001600160a01b03821660009081526003602052604081208054600192906200154390849062003110565b909155505060008181526002602052604080822080546001600160a01b0319166001600160a01b03861690811790915590518392907fddf252ad1be2c89b69c2b068fc378daa952ba7f163c4a11628f55a4df523b3ef908290a45050565b600081815260046020526040902080546001600160a01b0319166001600160a01b0384169081179091558190620015d88262000d64565b6001600160a01b03167f8c5be1e5ebec7d5bd14f71427d1e84f3dd0314c0f7b2291e5b200ac8c7c3b92560405160405180910390a45050565b60006200161e8262000d64565b90506200162d600083620015a1565b6001600160a01b0381166000908152600360205260408120805460019290620016589084906200312b565b909155505060008281526002602052604080822080546001600160a01b0319169055518391906001600160a01b038416907fddf252ad1be2c89b69c2b068fc378daa952ba7f163c4a11628f55a4df523b3ef908390a45050565b62000ab1813362001b6c565b620016ca828262001086565b62000d435760008281526006602090815260408083206001600160a01b03851684529091529020805460ff19166001179055620017043390565b6001600160a01b0316816001600160a01b0316837f2f8788117e7eff1d82e926ec794901d17c78024a50270940304540a733656f0d60405160405180910390a45050565b62001754828262001086565b1562000d435760008281526006602090815260408083206001600160a01b0385168085529252808320805460ff1916905551339285917ff6391f5c32d9c69d2a47ea670b442974b53935d1edc7fd64eb21e047a839171b9190a45050565b816001600160a01b0316836001600160a01b031603620018155760405162461bcd60e51b815260206004820152601960248201527f4552433732313a20617070726f766520746f2063616c6c65720000000000000060448201526064016200079c565b6001600160a01b03838116600081815260056020908152604080832094871680845294825291829020805460ff191686151590811790915591519182527f17307eab39ab6107e8899845ad3d59bd9653f200f220920489ca2b5937696c31910160405180910390a3505050565b6000818152600260205260408120546001600160a01b0316620018fd5760405162461bcd60e51b815260206004820152602c60248201527f4552433732313a206f70657261746f7220717565727920666f72206e6f6e657860448201526b34b9ba32b73a103a37b5b2b760a11b60648201526084016200079c565b60006200190a8362000d64565b9050806001600160a01b0316846001600160a01b031614806200195257506001600160a01b0380821660009081526005602090815260408083209388168352929052205460ff165b80620019795750836001600160a01b03166200196e8462000887565b6001600160a01b0316145b949350505050565b6200198e84848462001bdb565b6200199c8484848462001d83565b620007e75760405162461bcd60e51b81526004016200079c9062003145565b60606000620019ca8362001e91565b604051602001620019dc919062003197565b60408051601f198184030181528282018252600783526621b4ba34bd32b760c91b602084810191909152825180820184526000808252888152600a9092529281208054929550909162001a2f9062002b69565b80601f016020809104026020016040519081016040528092919081815260200182805462001a5d9062002b69565b801562001aae5780601f1062001a825761010080835404028352916020019162001aae565b820191906000526020600020905b81548152906001019060200180831162001a9057829003601f168201915b50505050509050600030905062001aec8483878660405160200162001ad79493929190620031ca565b60405160208183030381529060405262001fa9565b60405160200162001afe9190620032bc565b60405160208183030381529060405295505050505050919050565b60006001600160e01b031982166380ac58cd60e01b148062001b4b57506001600160e01b03198216635b5e139f60e01b145b806200073d57506301ffc9a760e01b6001600160e01b03198316146200073d565b62001b78828262001086565b62000d435762001b93816001600160a01b0316601462002121565b62001ba083602062002121565b60405160200162001bb392919062003303565b60408051601f198184030181529082905262461bcd60e51b82526200079c9160040162002437565b826001600160a01b031662001bf08262000d64565b6001600160a01b03161462001c565760405162461bcd60e51b815260206004820152602560248201527f4552433732313a207472616e736665722066726f6d20696e636f72726563742060448201526437bbb732b960d91b60648201526084016200079c565b6001600160a01b03821662001cba5760405162461bcd60e51b8152602060048201526024808201527f4552433732313a207472616e7366657220746f20746865207a65726f206164646044820152637265737360e01b60648201526084016200079c565b62001cc7600082620015a1565b6001600160a01b038316600090815260036020526040812080546001929062001cf29084906200312b565b90915550506001600160a01b038216600090815260036020526040812080546001929062001d2290849062003110565b909155505060008181526002602052604080822080546001600160a01b0319166001600160a01b0386811691821790925591518493918716917fddf252ad1be2c89b69c2b068fc378daa952ba7f163c4a11628f55a4df523b3ef91a4505050565b60006001600160a01b0384163b1562001e8657604051630a85bd0160e11b81526001600160a01b0385169063150b7a029062001dca9033908990889088906004016200337c565b6020604051808303816000875af192505050801562001e08575060408051601f3d908101601f1916820190925262001e0591810190620033bb565b60015b62001e6b573d80801562001e39576040519150601f19603f3d011682016040523d82523d6000602084013e62001e3e565b606091505b50805160000362001e635760405162461bcd60e51b81526004016200079c9062003145565b805181602001fd5b6001600160e01b031916630a85bd0160e11b14905062001979565b506001949350505050565b60608160000362001eb95750506040805180820190915260018152600360fc1b602082015290565b8160005b811562001ee9578062001ed08162002b4d565b915062001ee19050600a83620033f1565b915062001ebd565b6000816001600160401b0381111562001f065762001f06620028ad565b6040519080825280601f01601f19166020018201604052801562001f31576020820181803683370190505b5090505b8415620019795762001f496001836200312b565b915062001f58600a8662003408565b62001f6590603062003110565b60f81b81838151811062001f7d5762001f7d62002cc3565b60200101906001600160f81b031916908160001a90535062001fa1600a86620033f1565b945062001f35565b6060815160000362001fc957505060408051602081019091526000815290565b600060405180606001604052806040815260200162005c94604091399050600060038451600262001ffb919062003110565b620020079190620033f1565b620020149060046200341f565b905060006200202582602062003110565b6001600160401b038111156200203f576200203f620028ad565b6040519080825280601f01601f1916602001820160405280156200206a576020820181803683370190505b509050818152600183018586518101602084015b81831015620020d8576003830192508251603f8160121c168501518253600182019150603f81600c1c168501518253600182019150603f8160061c168501518253600182019150603f81168501518253506001016200207e565b600389510660018114620020f55760028114620021075762002113565b613d3d60f01b60011983015262002113565b603d60f81b6000198301525b509398975050505050505050565b60606000620021328360026200341f565b6200213f90600262003110565b6001600160401b03811115620021595762002159620028ad565b6040519080825280601f01601f19166020018201604052801562002184576020820181803683370190505b509050600360fc1b81600081518110620021a257620021a262002cc3565b60200101906001600160f81b031916908160001a905350600f60fb1b81600181518110620021d457620021d462002cc3565b60200101906001600160f81b031916908160001a9053506000620021fa8460026200341f565b6200220790600162003110565b90505b600181111562002289576f181899199a1a9b1b9c1cb0b131b232b360811b85600f16601081106200223f576200223f62002cc3565b1a60f81b82828151811062002258576200225862002cc3565b60200101906001600160f81b031916908160001a90535060049490941c93620022818162003441565b90506200220a565b508315620013405760405162461bcd60e51b815260206004820181905260248201527f537472696e67733a20686578206c656e67746820696e73756666696369656e7460448201526064016200079c565b612838806200345c83390190565b6001600160e01b03198116811462000ab157600080fd5b6000602082840312156200231257600080fd5b81356200134081620022e8565b6001600160a01b038116811462000ab157600080fd5b60008083601f8401126200234857600080fd5b5081356001600160401b038111156200236057600080fd5b6020830191508360208285010111156200237957600080fd5b9250929050565b6000806000604084860312156200239657600080fd5b8335620023a3816200231f565b925060208401356001600160401b03811115620023bf57600080fd5b620023cd8682870162002335565b9497909650939450505050565b60005b83811015620023f7578181015183820152602001620023dd565b83811115620007e75750506000910152565b6000815180845262002423816020860160208601620023da565b601f01601f19169290920160200192915050565b60208152600062001340602083018462002409565b6000602082840312156200245f57600080fd5b5035919050565b600080604083850312156200247a57600080fd5b823562002487816200231f565b946020939093013593505050565b6020808252825182820181905260009190848201906040850190845b81811015620024d85783516001600160a01b031683529284019291840191600101620024b1565b50909695505050505050565b600080600060608486031215620024fa57600080fd5b833562002507816200231f565b9250602084013562002519816200231f565b929592945050506040919091013590565b6000602082840312156200253d57600080fd5b813562001340816200231f565b600081518084526020808501945080840160005b83811015620025855781516001600160a01b0316875295820195908201906001016200255e565b509495945050505050565b602081526000825160406020840152620025ae60608401826200254a565b90506020840151601f19848303016040850152620025cd82826200254a565b95945050505050565b60008060208385031215620025ea57600080fd5b82356001600160401b038111156200260157600080fd5b6200260f8582860162002335565b90969095509350505050565b600080604083850312156200262f57600080fd5b82359150602083013562002643816200231f565b809150509250929050565b600081518084526020808501808196508360051b8101915082860160005b8581101562002731578284038952815160e081518652868201518188880152620026998288018262002409565b91505060408083015187830382890152620026b5838262002409565b9250505060608083015187830382890152620026d2838262002409565b9250505060808083015187830382890152620026ef838262002409565b9250505060a080830151878303828901526200270c838262002409565b60c094850151151598909401979097525050988501989350908401906001016200266c565b5091979650505050505050565b6000602080835260808451606080848701526200275e838701836200254a565b915083870151601f1960408189860301818a01528483518087528887019150888160051b880101898601955060005b828110156200283e5785898303018452865160c08151818552620027b48286018262002409565b9150508c8201518482038e860152620027ce828262002409565b9150508682015184820388860152620027e8828262002409565b915050898201518a8501528b8201518482038d8601526200280a82826200254a565b91505060a080830151925084820381860152506200282981836200264e565b988d0198958d0195935050506001016200278d565b50838d01519950848c820301878d01526200285a818b6200264e565b9d9c50505050505050505050505050565b801515811462000ab157600080fd5b600080604083850312156200288e57600080fd5b82356200289b816200231f565b9150602083013562002643816200286b565b634e487b7160e01b600052604160045260246000fd5b60405160e081016001600160401b0381118282101715620028e857620028e8620028ad565b60405290565b60405160c081016001600160401b0381118282101715620028e857620028e8620028ad565b604051601f8201601f191681016001600160401b03811182821017156200293e576200293e620028ad565b604052919050565b60006001600160401b03821115620029625762002962620028ad565b50601f01601f191660200190565b600062002987620029818462002946565b62002913565b90508281528383830111156200299c57600080fd5b828260208301376000602084830101529392505050565b60008060008060808587031215620029ca57600080fd5b8435620029d7816200231f565b93506020850135620029e9816200231f565b92506040850135915060608501356001600160401b0381111562002a0c57600080fd5b8501601f8101871362002a1e57600080fd5b62002a2f8782356020840162002970565b91505092959194509250565b600082601f83011262002a4d57600080fd5b620013408383356020850162002970565b60008060006060848603121562002a7457600080fd5b83356001600160401b038082111562002a8c57600080fd5b62002a9a8783880162002a3b565b9450602086013591508082111562002ab157600080fd5b62002abf8783880162002a3b565b9350604086013591508082111562002ad657600080fd5b5062002ae58682870162002a3b565b9150509250925092565b6020815260006200134060208301846200264e565b6000806040838503121562002b1857600080fd5b823562002b25816200231f565b9150602083013562002643816200231f565b634e487b7160e01b600052601160045260246000fd5b60006001820162002b625762002b6262002b37565b5060010190565b600181811c9082168062002b7e57607f821691505b60208210810362002b9f57634e487b7160e01b600052602260045260246000fd5b50919050565b601f82111562000a3957600081815260208120601f850160051c8101602086101562002bce5750805b601f850160051c820191505b8181101562002bef5782815560010162002bda565b505050505050565b6001600160401b0383111562002c115762002c11620028ad565b62002c298362002c22835462002b69565b8362002ba5565b6000601f84116001811462002c60576000851562002c475750838201355b600019600387901b1c1916600186901b178355620012c9565b600083815260209020601f19861690835b8281101562002c93578685013582556020948501946001909201910162002c71565b508682101562002cb15760001960f88860031b161c19848701351681555b505060018560011b0183555050505050565b634e487b7160e01b600052603260045260246000fd5b600082601f83011262002ceb57600080fd5b815162002cfc620029818262002946565b81815284602083860101111562002d1257600080fd5b62001979826020830160208701620023da565b60006001600160401b0382111562002d415762002d41620028ad565b5060051b60200190565b600082601f83011262002d5d57600080fd5b8151602062002d70620029818362002d25565b82815260059290921b8401810191818101908684111562002d9057600080fd5b8286015b8481101562002db857805162002daa816200231f565b835291830191830162002d94565b509695505050505050565b805162002dd0816200286b565b919050565b600082601f83011262002de757600080fd5b8151602062002dfa620029818362002d25565b82815260059290921b8401810191818101908684111562002e1a57600080fd5b8286015b8481101562002db85780516001600160401b038082111562002e405760008081fd5b9088019060e0828b03601f190181131562002e5b5760008081fd5b62002e65620028c3565b8784015181526040808501518481111562002e805760008081fd5b62002e908e8b8389010162002cd9565b8a840152506060808601518581111562002eaa5760008081fd5b62002eba8f8c838a010162002cd9565b838501525060809150818601518581111562002ed65760008081fd5b62002ee68f8c838a010162002cd9565b82850152505060a0808601518581111562002f015760008081fd5b62002f118f8c838a010162002cd9565b838501525060c09150818601518581111562002f2d5760008081fd5b62002f3d8f8c838a010162002cd9565b82850152505062002f5083860162002dc3565b90820152865250505091830191830162002e1e565b60006020828403121562002f7857600080fd5b81516001600160401b038082111562002f9057600080fd5b9083019060c0828603121562002fa557600080fd5b62002faf620028ee565b82518281111562002fbf57600080fd5b62002fcd8782860162002cd9565b82525060208301518281111562002fe357600080fd5b62002ff18782860162002cd9565b6020830152506040830151828111156200300a57600080fd5b620030188782860162002cd9565b604083015250606083015160608201526080830151828111156200303b57600080fd5b620030498782860162002d4b565b60808301525060a0830151828111156200306257600080fd5b620030708782860162002dd5565b60a08301525095945050505050565b60808152600062003094608083018762002409565b8281036020840152620030a8818762002409565b90508281036040840152620030be818662002409565b91505060018060a01b038316606083015295945050505050565b600060208284031215620030eb57600080fd5b81516001600160401b038111156200310257600080fd5b620019798482850162002dd5565b6000821982111562003126576200312662002b37565b500190565b60008282101562003140576200314062002b37565b500390565b60208082526032908201527f4552433732313a207472616e7366657220746f206e6f6e20455243373231526560408201527131b2b4bb32b91034b6b83632b6b2b73a32b960711b606082015260800190565b68436974697a656e202360b81b815260008251620031bd816009850160208701620023da565b9190910160090192915050565b683d913730b6b2911d1160b91b81528451600090620031f1816009850160208a01620023da565b601d60f91b60099184019182015285516200321481600a840160208a01620023da565b71111610113232b9b1b934b83a34b7b7111d1160711b600a929091019182015284516200324981601c840160208901620023da565b6c1116101134b6b0b3b2911d101160991b601c92909101918201527f646174613a696d6167652f7376672b786d6c3b6261736536342c000000000000602982015283516200329f816043840160208801620023da565b61227d60f01b604392909101918201526045019695505050505050565b7f646174613a6170706c69636174696f6e2f6a736f6e3b6261736536342c000000815260008251620032f681601d850160208701620023da565b91909101601d0192915050565b7f416363657373436f6e74726f6c3a206163636f756e74200000000000000000008152600083516200333d816017850160208801620023da565b7001034b99036b4b9b9b4b733903937b6329607d1b601791840191820152835162003370816028840160208801620023da565b01602801949350505050565b6001600160a01b0385811682528416602082015260408101839052608060608201819052600090620033b19083018462002409565b9695505050505050565b600060208284031215620033ce57600080fd5b81516200134081620022e8565b634e487b7160e01b600052601260045260246000fd5b600082620034035762003403620033db565b500490565b6000826200341a576200341a620033db565b500690565b60008160001904831182151516156200343c576200343c62002b37565b500290565b60008162003453576200345362002b37565b50600019019056fe60806040523480156200001157600080fd5b506040516200283838038062002838833981016040819052620000349162000145565b8383828282600062000047838262000287565b50600162000056828262000287565b50505050505081600a90816200006d919062000287565b505050505062000353565b634e487b7160e01b600052604160045260246000fd5b600082601f830112620000a057600080fd5b81516001600160401b0380821115620000bd57620000bd62000078565b604051601f8301601f19908116603f01168101908282118183101715620000e857620000e862000078565b816040528381526020925086838588010111156200010557600080fd5b600091505b838210156200012957858201830151818301840152908201906200010a565b838211156200013b5760008385830101525b9695505050505050565b600080600080608085870312156200015c57600080fd5b84516001600160401b03808211156200017457600080fd5b62000182888389016200008e565b955060208701519150808211156200019957600080fd5b620001a7888389016200008e565b94506040870151915080821115620001be57600080fd5b50620001cd878288016200008e565b606087015190935090506001600160a01b0381168114620001ed57600080fd5b939692955090935050565b600181811c908216806200020d57607f821691505b6020821081036200022e57634e487b7160e01b600052602260045260246000fd5b50919050565b601f8211156200028257600081815260208120601f850160051c810160208610156200025d5750805b601f850160051c820191505b818110156200027e5782815560010162000269565b5050505b505050565b81516001600160401b03811115620002a357620002a362000078565b620002bb81620002b48454620001f8565b8462000234565b602080601f831160018114620002f35760008415620002da5750858301515b600019600386901b1c1916600185901b1785556200027e565b600085815260208120601f198616915b82811015620003245788860151825594840194600190910190840162000303565b5085821015620003435787850151600019600388901b60f8161c191681555b5050505050600190811b01905550565b6124d580620003636000396000f3fe6080604052600436106101395760003560e01c806371e928af116100ab578063bd7b09e41161006f578063bd7b09e4146103b5578063c7f758a8146103ca578063c87b56dd146103f7578063e985e9c514610417578063f3caad0314610460578063f64e30b01461049957600080fd5b806371e928af1461031e5780637a5b4f591461033e57806395d89b4114610360578063a22cb46514610375578063b88d4fde1461039557600080fd5b806323b872dd116100fd57806323b872dd1461024e578063274a827b1461026e57806342842e0e1461028e57806362564c48146102ae5780636352211e146102d057806370a08231146102f057600080fd5b806301ffc9a71461017d57806306fdde03146101b2578063081812fc146101d4578063095ea7b31461020c57806320c5429b1461022e57600080fd5b3661017857604080513381523460208201527f88a5966d370b9919b20f3e2c13ff65706f196a4e32cc2c12bf57088f88525874910160405180910390a1005b600080fd5b34801561018957600080fd5b5061019d610198366004611cc9565b6104b9565b60405190151581526020015b60405180910390f35b3480156101be57600080fd5b506101c761050b565b6040516101a99190611d3e565b3480156101e057600080fd5b506101f46101ef366004611d51565b61059d565b6040516001600160a01b0390911681526020016101a9565b34801561021857600080fd5b5061022c610227366004611d86565b610637565b005b34801561023a57600080fd5b5061022c610249366004611d51565b61074c565b34801561025a57600080fd5b5061022c610269366004611db0565b610758565b34801561027a57600080fd5b506101c7610289366004611dec565b6107a0565b34801561029a57600080fd5b5061022c6102a9366004611db0565b61084e565b3480156102ba57600080fd5b506102c3610869565b6040516101a99190611f52565b3480156102dc57600080fd5b506101f46102eb366004611d51565b610bbe565b3480156102fc57600080fd5b5061031061030b366004611f65565b610c35565b6040519081526020016101a9565b34801561032a57600080fd5b5061022c610339366004611f65565b610cbc565b34801561034a57600080fd5b50610353610ced565b6040516101a99190611f80565b34801561036c57600080fd5b506101c7610f32565b34801561038157600080fd5b5061022c610390366004612055565b610f41565b3480156103a157600080fd5b5061022c6103b03660046120a7565b610f50565b3480156103c157600080fd5b50600654610310565b3480156103d657600080fd5b506103ea6103e5366004611d51565b610fd2565b6040516101a99190612183565b34801561040357600080fd5b506101c7610412366004611d51565b61133e565b34801561042357600080fd5b5061019d610432366004612196565b6001600160a01b03918216600090815260056020908152604080832093909416825291909152205460ff1690565b34801561046c57600080fd5b5061019d61047b366004611f65565b6001600160a01b031660009081526007602052604090205460ff1690565b3480156104a557600080fd5b506101c76104b4366004611f65565b611426565b60006001600160e01b031982166380ac58cd60e01b14806104ea57506001600160e01b03198216635b5e139f60e01b145b8061050557506301ffc9a760e01b6001600160e01b03198316145b92915050565b60606000805461051a906121c9565b80601f0160208091040260200160405190810160405280929190818152602001828054610546906121c9565b80156105935780601f1061056857610100808354040283529160200191610593565b820191906000526020600020905b81548152906001019060200180831161057657829003601f168201915b5050505050905090565b6000818152600260205260408120546001600160a01b031661061b5760405162461bcd60e51b815260206004820152602c60248201527f4552433732313a20617070726f76656420717565727920666f72206e6f6e657860448201526b34b9ba32b73a103a37b5b2b760a11b60648201526084015b60405180910390fd5b506000908152600460205260409020546001600160a01b031690565b600061064282610bbe565b9050806001600160a01b0316836001600160a01b0316036106af5760405162461bcd60e51b815260206004820152602160248201527f4552433732313a20617070726f76616c20746f2063757272656e74206f776e656044820152603960f91b6064820152608401610612565b336001600160a01b03821614806106cb57506106cb8133610432565b61073d5760405162461bcd60e51b815260206004820152603860248201527f4552433732313a20617070726f76652063616c6c6572206973206e6f74206f7760448201527f6e6572206e6f7220617070726f76656420666f7220616c6c00000000000000006064820152608401610612565b61074783836114d2565b505050565b61075581611540565b50565b60405162461bcd60e51b815260206004820152601d60248201527f436974697a656e416c7068613a204b65657020796f757220536f756c200000006044820152606401610612565b3360009081526008602052604090206060906107bd838583612251565b80546107c8906121c9565b80601f01602080910402602001604051908101604052809291908181526020018280546107f4906121c9565b80156108415780601f1061081657610100808354040283529160200191610841565b820191906000526020600020905b81548152906001019060200180831161082457829003601f168201915b5050505050905092915050565b61074783838360405180602001604052806000815250610f50565b60606009805480602002602001604051908101604052809291908181526020016000905b82821015610bb557838290600052602060002090600702016040518060e0016040529081600082015481526020016001820180546108ca906121c9565b80601f01602080910402602001604051908101604052809291908181526020018280546108f6906121c9565b80156109435780601f1061091857610100808354040283529160200191610943565b820191906000526020600020905b81548152906001019060200180831161092657829003601f168201915b5050505050815260200160028201805461095c906121c9565b80601f0160208091040260200160405190810160405280929190818152602001828054610988906121c9565b80156109d55780601f106109aa576101008083540402835291602001916109d5565b820191906000526020600020905b8154815290600101906020018083116109b857829003601f168201915b505050505081526020016003820180546109ee906121c9565b80601f0160208091040260200160405190810160405280929190818152602001828054610a1a906121c9565b8015610a675780601f10610a3c57610100808354040283529160200191610a67565b820191906000526020600020905b815481529060010190602001808311610a4a57829003601f168201915b50505050508152602001600482018054610a80906121c9565b80601f0160208091040260200160405190810160405280929190818152602001828054610aac906121c9565b8015610af95780601f10610ace57610100808354040283529160200191610af9565b820191906000526020600020905b815481529060010190602001808311610adc57829003601f168201915b50505050508152602001600582018054610b12906121c9565b80601f0160208091040260200160405190810160405280929190818152602001828054610b3e906121c9565b8015610b8b5780601f10610b6057610100808354040283529160200191610b8b565b820191906000526020600020905b815481529060010190602001808311610b6e57829003601f168201915b50505091835250506006919091015460ff161515602091820152908252600192909201910161088d565b50505050905090565b6000818152600260205260408120546001600160a01b0316806105055760405162461bcd60e51b815260206004820152602960248201527f4552433732313a206f776e657220717565727920666f72206e6f6e657869737460448201526832b73a103a37b5b2b760b91b6064820152608401610612565b60006001600160a01b038216610ca05760405162461bcd60e51b815260206004820152602a60248201527f4552433732313a2062616c616e636520717565727920666f7220746865207a65604482015269726f206164647265737360b01b6064820152608401610612565b506001600160a01b031660009081526003602052604090205490565b6001600160a01b038116600090815260076020526006805461075592849290610ce483612328565b919050556115db565b610d266040518060c001604052806060815260200160608152602001606081526020016000815260200160608152602001606081525090565b6000610d3160065490565b905060008167ffffffffffffffff811115610d4e57610d4e612091565b604051908082528060200260200182016040528015610dc457816020015b610db16040518060e001604052806000801916815260200160608152602001606081526020016060815260200160608152602001606081526020016000151581525090565b815260200190600190039081610d6c5790505b50905060008267ffffffffffffffff811115610de257610de2612091565b604051908082528060200260200182016040528015610e0b578160200160208202803683370190505b50905060005b83811015610e64576000610e2482610bbe565b905080838381518110610e3957610e39612341565b6001600160a01b03909216602092830291909101909101525080610e5c81612328565b915050610e11565b506040518060c00160405280610e7861050b565b8152602001610e85610f32565b8152602001600a8054610e97906121c9565b80601f0160208091040260200160405190810160405280929190818152602001828054610ec3906121c9565b8015610f105780601f10610ee557610100808354040283529160200191610f10565b820191906000526020600020905b815481529060010190602001808311610ef357829003601f168201915b5050505050815260200147815260200182815260200183815250935050505090565b60606001805461051a906121c9565b610f4c33838361171d565b5050565b610f5a33836117eb565b610fc05760405162461bcd60e51b815260206004820152603160248201527f4552433732313a207472616e736665722063616c6c6572206973206e6f74206f6044820152701ddb995c881b9bdc88185c1c1c9bdd9959607a1b6064820152608401610612565b610fcc848484846118e2565b50505050565b6110176040518060e001604052806000801916815260200160608152602001606081526020016060815260200160608152602001606081526020016000151581525090565b6009828154811061102a5761102a612341565b90600052602060002090600702016040518060e00160405290816000820154815260200160018201805461105d906121c9565b80601f0160208091040260200160405190810160405280929190818152602001828054611089906121c9565b80156110d65780601f106110ab576101008083540402835291602001916110d6565b820191906000526020600020905b8154815290600101906020018083116110b957829003601f168201915b505050505081526020016002820180546110ef906121c9565b80601f016020809104026020016040519081016040528092919081815260200182805461111b906121c9565b80156111685780601f1061113d57610100808354040283529160200191611168565b820191906000526020600020905b81548152906001019060200180831161114b57829003601f168201915b50505050508152602001600382018054611181906121c9565b80601f01602080910402602001604051908101604052809291908181526020018280546111ad906121c9565b80156111fa5780601f106111cf576101008083540402835291602001916111fa565b820191906000526020600020905b8154815290600101906020018083116111dd57829003601f168201915b50505050508152602001600482018054611213906121c9565b80601f016020809104026020016040519081016040528092919081815260200182805461123f906121c9565b801561128c5780601f106112615761010080835404028352916020019161128c565b820191906000526020600020905b81548152906001019060200180831161126f57829003601f168201915b505050505081526020016005820180546112a5906121c9565b80601f01602080910402602001604051908101604052809291908181526020018280546112d1906121c9565b801561131e5780601f106112f35761010080835404028352916020019161131e565b820191906000526020600020905b81548152906001019060200180831161130157829003601f168201915b50505091835250506006919091015460ff16151560209091015292915050565b6000818152600260205260409020546060906001600160a01b03166113bd5760405162461bcd60e51b815260206004820152602f60248201527f4552433732314d657461646174613a2055524920717565727920666f72206e6f60448201526e3732bc34b9ba32b73a103a37b5b2b760891b6064820152608401610612565b60006113d460408051602081019091526000815290565b905060008151116113f4576040518060200160405280600081525061141f565b806113fe84611915565b60405160200161140f929190612357565b6040516020818303038152906040525b9392505050565b6001600160a01b038116600090815260086020526040902080546060919061144d906121c9565b80601f0160208091040260200160405190810160405280929190818152602001828054611479906121c9565b80156114c65780601f1061149b576101008083540402835291602001916114c6565b820191906000526020600020905b8154815290600101906020018083116114a957829003601f168201915b50505050509050919050565b600081815260046020526040902080546001600160a01b0319166001600160a01b038416908117909155819061150782610bbe565b6001600160a01b03167f8c5be1e5ebec7d5bd14f71427d1e84f3dd0314c0f7b2291e5b200ac8c7c3b92560405160405180910390a45050565b600061154b82610bbe565b90506115586000836114d2565b6001600160a01b0381166000908152600360205260408120805460019290611581908490612386565b909155505060008281526002602052604080822080546001600160a01b0319169055518391906001600160a01b038416907fddf252ad1be2c89b69c2b068fc378daa952ba7f163c4a11628f55a4df523b3ef908390a45050565b6001600160a01b0382166116315760405162461bcd60e51b815260206004820181905260248201527f4552433732313a206d696e7420746f20746865207a65726f20616464726573736044820152606401610612565b6000818152600260205260409020546001600160a01b0316156116965760405162461bcd60e51b815260206004820152601c60248201527f4552433732313a20746f6b656e20616c7265616479206d696e746564000000006044820152606401610612565b6001600160a01b03821660009081526003602052604081208054600192906116bf90849061239d565b909155505060008181526002602052604080822080546001600160a01b0319166001600160a01b03861690811790915590518392907fddf252ad1be2c89b69c2b068fc378daa952ba7f163c4a11628f55a4df523b3ef908290a45050565b816001600160a01b0316836001600160a01b03160361177e5760405162461bcd60e51b815260206004820152601960248201527f4552433732313a20617070726f766520746f2063616c6c6572000000000000006044820152606401610612565b6001600160a01b03838116600081815260056020908152604080832094871680845294825291829020805460ff191686151590811790915591519182527f17307eab39ab6107e8899845ad3d59bd9653f200f220920489ca2b5937696c31910160405180910390a3505050565b6000818152600260205260408120546001600160a01b03166118645760405162461bcd60e51b815260206004820152602c60248201527f4552433732313a206f70657261746f7220717565727920666f72206e6f6e657860448201526b34b9ba32b73a103a37b5b2b760a11b6064820152608401610612565b600061186f83610bbe565b9050806001600160a01b0316846001600160a01b031614806118b657506001600160a01b0380821660009081526005602090815260408083209388168352929052205460ff165b806118da5750836001600160a01b03166118cf8461059d565b6001600160a01b0316145b949350505050565b6118ed848484611a16565b6118f984848484611bb2565b610fcc5760405162461bcd60e51b8152600401610612906123b5565b60608160000361193c5750506040805180820190915260018152600360fc1b602082015290565b8160005b8115611966578061195081612328565b915061195f9050600a8361241d565b9150611940565b60008167ffffffffffffffff81111561198157611981612091565b6040519080825280601f01601f1916602001820160405280156119ab576020820181803683370190505b5090505b84156118da576119c0600183612386565b91506119cd600a86612431565b6119d890603061239d565b60f81b8183815181106119ed576119ed612341565b60200101906001600160f81b031916908160001a905350611a0f600a8661241d565b94506119af565b826001600160a01b0316611a2982610bbe565b6001600160a01b031614611a8d5760405162461bcd60e51b815260206004820152602560248201527f4552433732313a207472616e736665722066726f6d20696e636f72726563742060448201526437bbb732b960d91b6064820152608401610612565b6001600160a01b038216611aef5760405162461bcd60e51b8152602060048201526024808201527f4552433732313a207472616e7366657220746f20746865207a65726f206164646044820152637265737360e01b6064820152608401610612565b611afa6000826114d2565b6001600160a01b0383166000908152600360205260408120805460019290611b23908490612386565b90915550506001600160a01b0382166000908152600360205260408120805460019290611b5190849061239d565b909155505060008181526002602052604080822080546001600160a01b0319166001600160a01b0386811691821790925591518493918716917fddf252ad1be2c89b69c2b068fc378daa952ba7f163c4a11628f55a4df523b3ef91a4505050565b60006001600160a01b0384163b15611ca857604051630a85bd0160e11b81526001600160a01b0385169063150b7a0290611bf6903390899088908890600401612445565b6020604051808303816000875af1925050508015611c31575060408051601f3d908101601f19168201909252611c2e91810190612482565b60015b611c8e573d808015611c5f576040519150601f19603f3d011682016040523d82523d6000602084013e611c64565b606091505b508051600003611c865760405162461bcd60e51b8152600401610612906123b5565b805181602001fd5b6001600160e01b031916630a85bd0160e11b1490506118da565b506001949350505050565b6001600160e01b03198116811461075557600080fd5b600060208284031215611cdb57600080fd5b813561141f81611cb3565b60005b83811015611d01578181015183820152602001611ce9565b83811115610fcc5750506000910152565b60008151808452611d2a816020860160208601611ce6565b601f01601f19169290920160200192915050565b60208152600061141f6020830184611d12565b600060208284031215611d6357600080fd5b5035919050565b80356001600160a01b0381168114611d8157600080fd5b919050565b60008060408385031215611d9957600080fd5b611da283611d6a565b946020939093013593505050565b600080600060608486031215611dc557600080fd5b611dce84611d6a565b9250611ddc60208501611d6a565b9150604084013590509250925092565b60008060208385031215611dff57600080fd5b823567ffffffffffffffff80821115611e1757600080fd5b818501915085601f830112611e2b57600080fd5b813581811115611e3a57600080fd5b866020828501011115611e4c57600080fd5b60209290920196919550909350505050565b805182526000602082015160e06020850152611e7d60e0850182611d12565b905060408301518482036040860152611e968282611d12565b91505060608301518482036060860152611eb08282611d12565b91505060808301518482036080860152611eca8282611d12565b91505060a083015184820360a0860152611ee48282611d12565b91505060c0830151151560c08501528091505092915050565b600081518084526020808501808196508360051b8101915082860160005b85811015611f45578284038952611f33848351611e5e565b98850198935090840190600101611f1b565b5091979650505050505050565b60208152600061141f6020830184611efd565b600060208284031215611f7757600080fd5b61141f82611d6a565b60006020808352835160c082850152611f9c60e0850182611d12565b905081850151601f1980868403016040870152611fb98383611d12565b92506040870151915080868403016060870152611fd68383611d12565b6060880151608088810191909152880151878203830160a08901528051808352908601945060009350908501905b8084101561202d5784516001600160a01b03168252938501936001939093019290850190612004565b5060a08801519450818782030160c08801526120498186611efd565b98975050505050505050565b6000806040838503121561206857600080fd5b61207183611d6a565b91506020830135801515811461208657600080fd5b809150509250929050565b634e487b7160e01b600052604160045260246000fd5b600080600080608085870312156120bd57600080fd5b6120c685611d6a565b93506120d460208601611d6a565b925060408501359150606085013567ffffffffffffffff808211156120f857600080fd5b818701915087601f83011261210c57600080fd5b81358181111561211e5761211e612091565b604051601f8201601f19908116603f0116810190838211818310171561214657612146612091565b816040528281528a602084870101111561215f57600080fd5b82602086016020830137600060208483010152809550505050505092959194509250565b60208152600061141f6020830184611e5e565b600080604083850312156121a957600080fd5b6121b283611d6a565b91506121c060208401611d6a565b90509250929050565b600181811c908216806121dd57607f821691505b6020821081036121fd57634e487b7160e01b600052602260045260246000fd5b50919050565b601f82111561074757600081815260208120601f850160051c8101602086101561222a5750805b601f850160051c820191505b8181101561224957828155600101612236565b505050505050565b67ffffffffffffffff83111561226957612269612091565b61227d8361227783546121c9565b83612203565b6000601f8411600181146122b157600085156122995750838201355b600019600387901b1c1916600186901b17835561230b565b600083815260209020601f19861690835b828110156122e257868501358255602094850194600190920191016122c2565b50868210156122ff5760001960f88860031b161c19848701351681555b505060018560011b0183555b5050505050565b634e487b7160e01b600052601160045260246000fd5b60006001820161233a5761233a612312565b5060010190565b634e487b7160e01b600052603260045260246000fd5b60008351612369818460208801611ce6565b83519083019061237d818360208801611ce6565b01949350505050565b60008282101561239857612398612312565b500390565b600082198211156123b0576123b0612312565b500190565b60208082526032908201527f4552433732313a207472616e7366657220746f206e6f6e20455243373231526560408201527131b2b4bb32b91034b6b83632b6b2b73a32b960711b606082015260800190565b634e487b7160e01b600052601260045260246000fd5b60008261242c5761242c612407565b500490565b60008261244057612440612407565b500690565b6001600160a01b038581168252841660208201526040810183905260806060820181905260009061247890830184611d12565b9695505050505050565b60006020828403121561249457600080fd5b815161141f81611cb356fea2646970667358221220a3d676a844b270e8cd7e99b60410ef32665895047cf616ceec74112d86f9357764736f6c634300080f00334142434445464748494a4b4c4d4e4f505152535455565758595a6162636465666768696a6b6c6d6e6f707172737475767778797a303132333435363738392b2fa2646970667358221220151d67ee55018f5a51b0a0c00bbacfd50e1fa704280bb38162a2d1819a81602b64736f6c634300080f0033",
  "devdoc": {
    "kind": "dev",
    "methods": {
      "approve(address,uint256)": {
        "details": "See {IERC721-approve}."
      },
      "balanceOf(address)": {
        "details": "See {IERC721-balanceOf}."
      },
      "getApproved(uint256)": {
        "details": "See {IERC721-getApproved}."
      },
      "getRoleAdmin(bytes32)": {
        "details": "Returns the admin role that controls `role`. See {grantRole} and {revokeRole}. To change a role's admin, use {_setRoleAdmin}."
      },
      "grantRole(bytes32,address)": {
        "details": "Grants `role` to `account`. If `account` had not been already granted `role`, emits a {RoleGranted} event. Requirements: - the caller must have ``role``'s admin role."
      },
      "hasRole(bytes32,address)": {
        "details": "Returns `true` if `account` has been granted `role`."
      },
      "isApprovedForAll(address,address)": {
        "details": "See {IERC721-isApprovedForAll}."
      },
      "name()": {
        "details": "See {IERC721Metadata-name}."
      },
      "ownerOf(uint256)": {
        "details": "See {IERC721-ownerOf}."
      },
      "renounceRole(bytes32,address)": {
        "details": "Revokes `role` from the calling account. Roles are often managed via {grantRole} and {revokeRole}: this function's purpose is to provide a mechanism for accounts to lose their privileges if they are compromised (such as when a trusted device is misplaced). If the calling account had been revoked `role`, emits a {RoleRevoked} event. Requirements: - the caller must be `account`."
      },
      "revokeRole(bytes32,address)": {
        "details": "Revokes `role` from `account`. If `account` had been granted `role`, emits a {RoleRevoked} event. Requirements: - the caller must have ``role``'s admin role."
      },
      "safeTransferFrom(address,address,uint256)": {
        "details": "See {IERC721-safeTransferFrom}."
      },
      "safeTransferFrom(address,address,uint256,bytes)": {
        "details": "See {IERC721-safeTransferFrom}."
      },
      "setApprovalForAll(address,bool)": {
        "details": "See {IERC721-setApprovalForAll}."
      },
      "symbol()": {
        "details": "See {IERC721Metadata-symbol}."
      },
      "tokenURI(uint256)": {
        "details": "The returned value may be a base64 encoded data URI or an API URL."
      },
      "transferFrom(address,address,uint256)": {
        "details": "See {IERC721-transferFrom}."
      }
    },
    "version": 1
  },
  "userdoc": {
    "kind": "user",
    "methods": {
      "tokenURI(uint256)": {
        "notice": "Given a token ID and seed, construct a token URI for an official Nouns DAO noun."
      }
    },
    "version": 1
  },
  "storageLayout": {
    "storage": [
      {
        "astId": 418,
        "contract": "contracts/CitizenV1.sol:CitizenV1",
        "label": "_name",
        "offset": 0,
        "slot": "0",
        "type": "t_string_storage"
      },
      {
        "astId": 420,
        "contract": "contracts/CitizenV1.sol:CitizenV1",
        "label": "_symbol",
        "offset": 0,
        "slot": "1",
        "type": "t_string_storage"
      },
      {
        "astId": 424,
        "contract": "contracts/CitizenV1.sol:CitizenV1",
        "label": "_owners",
        "offset": 0,
        "slot": "2",
        "type": "t_mapping(t_uint256,t_address)"
      },
      {
        "astId": 428,
        "contract": "contracts/CitizenV1.sol:CitizenV1",
        "label": "_balances",
        "offset": 0,
        "slot": "3",
        "type": "t_mapping(t_address,t_uint256)"
      },
      {
        "astId": 432,
        "contract": "contracts/CitizenV1.sol:CitizenV1",
        "label": "_tokenApprovals",
        "offset": 0,
        "slot": "4",
        "type": "t_mapping(t_uint256,t_address)"
      },
      {
        "astId": 438,
        "contract": "contracts/CitizenV1.sol:CitizenV1",
        "label": "_operatorApprovals",
        "offset": 0,
        "slot": "5",
        "type": "t_mapping(t_address,t_mapping(t_address,t_bool))"
      },
      {
        "astId": 24,
        "contract": "contracts/CitizenV1.sol:CitizenV1",
        "label": "_roles",
        "offset": 0,
        "slot": "6",
        "type": "t_mapping(t_bytes32,t_struct(RoleData)19_storage)"
      },
      {
        "astId": 2114,
        "contract": "contracts/CitizenV1.sol:CitizenV1",
        "label": "totalCitizens",
        "offset": 0,
        "slot": "7",
        "type": "t_uint256"
      },
      {
        "astId": 2118,
        "contract": "contracts/CitizenV1.sol:CitizenV1",
        "label": "_isCitizen",
        "offset": 0,
        "slot": "8",
        "type": "t_mapping(t_address,t_bool)"
      },
      {
        "astId": 2122,
        "contract": "contracts/CitizenV1.sol:CitizenV1",
        "label": "_citizenDID",
        "offset": 0,
        "slot": "9",
        "type": "t_mapping(t_address,t_string_storage)"
      },
      {
        "astId": 2126,
        "contract": "contracts/CitizenV1.sol:CitizenV1",
        "label": "_citizenAlias",
        "offset": 0,
        "slot": "10",
        "type": "t_mapping(t_uint256,t_string_storage)"
      },
      {
        "astId": 2165,
        "contract": "contracts/CitizenV1.sol:CitizenV1",
        "label": "dao",
        "offset": 0,
        "slot": "11",
        "type": "t_struct(DAOStorage)2150_storage"
      }
    ],
    "types": {
      "t_address": {
        "encoding": "inplace",
        "label": "address",
        "numberOfBytes": "20"
      },
      "t_array(t_address)dyn_storage": {
        "base": "t_address",
        "encoding": "dynamic_array",
        "label": "address[]",
        "numberOfBytes": "32"
      },
      "t_bool": {
        "encoding": "inplace",
        "label": "bool",
        "numberOfBytes": "1"
      },
      "t_bytes32": {
        "encoding": "inplace",
        "label": "bytes32",
        "numberOfBytes": "32"
      },
      "t_mapping(t_address,t_bool)": {
        "encoding": "mapping",
        "key": "t_address",
        "label": "mapping(address => bool)",
        "numberOfBytes": "32",
        "value": "t_bool"
      },
      "t_mapping(t_address,t_mapping(t_address,t_bool))": {
        "encoding": "mapping",
        "key": "t_address",
        "label": "mapping(address => mapping(address => bool))",
        "numberOfBytes": "32",
        "value": "t_mapping(t_address,t_bool)"
      },
      "t_mapping(t_address,t_string_storage)": {
        "encoding": "mapping",
        "key": "t_address",
        "label": "mapping(address => string)",
        "numberOfBytes": "32",
        "value": "t_string_storage"
      },
      "t_mapping(t_address,t_uint256)": {
        "encoding": "mapping",
        "key": "t_address",
        "label": "mapping(address => uint256)",
        "numberOfBytes": "32",
        "value": "t_uint256"
      },
      "t_mapping(t_bytes32,t_struct(RoleData)19_storage)": {
        "encoding": "mapping",
        "key": "t_bytes32",
        "label": "mapping(bytes32 => struct AccessControl.RoleData)",
        "numberOfBytes": "32",
        "value": "t_struct(RoleData)19_storage"
      },
      "t_mapping(t_uint256,t_address)": {
        "encoding": "mapping",
        "key": "t_uint256",
        "label": "mapping(uint256 => address)",
        "numberOfBytes": "32",
        "value": "t_address"
      },
      "t_mapping(t_uint256,t_string_storage)": {
        "encoding": "mapping",
        "key": "t_uint256",
        "label": "mapping(uint256 => string)",
        "numberOfBytes": "32",
        "value": "t_string_storage"
      },
      "t_string_storage": {
        "encoding": "bytes",
        "label": "string",
        "numberOfBytes": "32"
      },
      "t_struct(DAOStorage)2150_storage": {
        "encoding": "inplace",
        "label": "struct CitizenV1.DAOStorage",
        "members": [
          {
            "astId": 2146,
            "contract": "contracts/CitizenV1.sol:CitizenV1",
            "label": "founders",
            "offset": 0,
            "slot": "0",
            "type": "t_array(t_address)dyn_storage"
          },
          {
            "astId": 2149,
            "contract": "contracts/CitizenV1.sol:CitizenV1",
            "label": "guilds",
            "offset": 0,
            "slot": "1",
            "type": "t_array(t_address)dyn_storage"
          }
        ],
        "numberOfBytes": "64"
      },
      "t_struct(RoleData)19_storage": {
        "encoding": "inplace",
        "label": "struct AccessControl.RoleData",
        "members": [
          {
            "astId": 16,
            "contract": "contracts/CitizenV1.sol:CitizenV1",
            "label": "members",
            "offset": 0,
            "slot": "0",
            "type": "t_mapping(t_address,t_bool)"
          },
          {
            "astId": 18,
            "contract": "contracts/CitizenV1.sol:CitizenV1",
            "label": "adminRole",
            "offset": 0,
            "slot": "1",
            "type": "t_bytes32"
          }
        ],
        "numberOfBytes": "64"
      },
      "t_uint256": {
        "encoding": "inplace",
        "label": "uint256",
        "numberOfBytes": "32"
      }
    }
  }
}